:020000040800F2
:1000000000200010DD2E030829AE0008C53D0008C1
:1000100027AE000825AE000823AE0008000000004F
:1000200000000000000000000000000021AE0008F9
:100030001FAE0008000000001DAE0008413300089C
:10004000452F0308452F0308452F0308452F0308B4
:10005000452F0308452F0308AD3E0008ED3F00087B
:10006000AD3F00086D3F00082D3F00088182000869
:1000700071820008618200085182000841820008F4
:100080002D82000819820008452F0308452F030818
:10009000ADE30008452F0308452F0308ED3E000897
:1000A0007521000819260008452F0308D5260008E9
:1000B0005D250008A1240008D9230008452F030866
:1000C000452F0308452F0308452F0308452F030834
:1000D000452F030879340008FD33000881330008F8
:1000E0006D3E0008452F03080DAE0008452F03089C
:1000F00041220008452F03080D230008452F03085F
:10010000000000000000000000000000452F030870
:10011000452F0308452F0308D15B0108BD5B01088B
:1001200005820008F1810008DD810008C98100080E
:10013000B5810008452F0308000000000000000002
:10014000452F0308452F0308452F03080000000032
:10015000000000000000000000000000000000009F
:100160000000000000000000452F0308452F030891
:10017000452F030800000000000000000000000000
:0801800000000000452F0308F8
:100188000C4B1B78DB0700D570470B4A1368002B14
:10019800FAD04FF47A7101FB03F39842F4D3074B7A
:1001A8001B781BB9064B99681B690B600023136009
:1001B800704700BF8C220020583500204C350020A5
:1001C800582F002090ED057A90ED004AD0ED066A90
:1001D800D0ED014AD0ED047A90ED035AD0ED025AE1
:1001E800A4EE007AB0EE406AB0EE470AB0EE667A46
:1001F800A4EE867A67EEC07AA5EE407AE5EE867AB6
:1002080080ED057AC0ED067A704700BF704700BFE1
:1002180070B50C4C23689BB15A68821A002A0FDB10
:100228000546002603E05A68AA1A002A08DB9968DE
:100238001E731A682160184690472368002BF2D174
:1002480070BD00BF641C0020436A8269D154436AB0
:100258000169C26B01338B4228BF002343623AB362
:1002680070B4EFF31183502282F31288C66B3268A0
:10027800D20704D5DBB283F3118870BC704771686C
:1002880069B9D0E90942944218D085691544F560E6
:1002980018D9A21A72608462002280F85820326845
:1002A80042F00102DBB2326083F3118870BC704700
:1002B800426D136843F0800313607047012280F891
:1002C8005820D7E70469A21A72608162E4E700BF88
:1002D800034610B4846BD968406954B19A6C8C1A7F
:1002E800013A005D5DF8044B08BF0A46C0B29A6443
:1002F80070471A6A805C01328A4228BF2246C0B21F
:100308001A625DF8044B7047C36B13B190F858003C
:100318007047D0E90903181AB0FA80F0400970470D
:10032800D0E909120369914238BFC9188A1AC16B0A
:10033800013B19B149680A449A4201D2981A704798
:1003480000207047836B43B1826C5B689A4291BF0F
:10035800981AC0689B1AC0187047D0E907239A42B8
:100368002FBFD01AC0688018C01A70470A4B30B522
:1003780003F1140493F900205D78072AC8BF143AE2
:10038800811804330D7313F8025C855413F8012C9B
:100398000A769C42EED130BD5834030803682DE933
:1003A800F0415D6A1DB12B46BDE8F0411847002AAF
:1003B800174611DD04460E460F4400E023689B688B
:1003C800204698470028F9D0236816F8011B1B68B7
:1003D80020469847BE42F1D1BDE8F08103681B6909
:1003E800184700BF00232322027043708370C37034
:1003F800704700BF10EE103AC3F3160242F07E5267
:1004080007EE102ADFED167ADFED164A9FED165A31
:10041800DFED165A9FED166ADFED163ADFED166A24
:100428009FED164AE7EE274ADB1507EE903AA4EE51
:10043800875AF8EEE77AE5EE075A67EEA37AA5EE53
:10044800876AB5EEC00AE6EE077AF1EE10FAD4BF75
:10045800B0EE440AB0EE660A37EE800A704700BF75
:10046800DACDFE3CB9D593BE5CB8903FAA841DC0D6
:1004780022E061401872313F07F1B3C2000080FFEB
:10048800DFED1D3ADFED1D7A9FED1D7A9FED1D4AC8
:10049800DFED1D4A9FED1D5ADFED1D5A9FED1D6AC8
:1004A800DFED1D6AE0EE237AF4EEC77AF1EE10FA7A
:1004B80088BFF0EE477AF4EEC47AF1EE10FAB8BFCE
:1004C800F0EE447AFDEEE77A17EE903AC3F316029F
:1004D80042F07E5207EE102AA7EE245A03F0FF439B
:1004E80000EE103AE5EE075AA5EE876AE6EE076ACF
:1004F80026EE800A704700BF3BAA384B00007E4EAC
:100508000000FF4E00000000ED185E3C81900FBB1C
:10051800AF9D2A3EB2D19F3EE886023FD0ED057AD4
:1005280090ED013AD0ED003AD0ED064A90ED024A3E
:1005380090ED077A90ED035A90ED086AD0ED045AD1
:10054800C0ED067AF0EE406A27EE830AC0ED056A30
:10055800A3EEA60A80ED087AA4EE240AA5EE470ABF
:10056800A5EEC60A80ED070A704700BFD0ED007AF5
:1005780090ED017A30EE670AE7EE007AB0EE670A8E
:10058800C0ED007A704700BF704700BF0028F0B484
:1005980003DA2D230B7040420131092804464FF03D
:1005A800010307DD03EB83035B00B0FBF3F2092AC9
:1005B800F8D883B10F48A0FB0326B4FBF3F2092A4D
:1005C80002F1570C02F1300709DD03FB1244F3086E
:1005D80001F801CBEFD100230B70F0BC704703FB8F
:1005E8001244F30801F8017BE5D100230B70F0BC3D
:1005F800704700BFCDCCCCCC884270B44FF001041A
:1006080042D301FB04F4B0FBF4F58D42F9D2ECB10E
:1006180042BB092D04FB150005F1570605F1300210
:100628000EDDB4FBF1F403F8016B7CB1B0FBF4F51B
:10063800092D04FB150005F1570605F13002F0DC21
:10064800B4FBF1F403F8012B002CEFD100221A704F
:1006580070BC704703F8016BB4FBF1F4002CF5D0C3
:10066800B0FBF4F5092D04FB150005F1370605F17B
:100678003002EFDCB4FBF1F403F8012B002CEFD1CE
:1006880000221A7070BC70470546002AEAD1C0E7FC
:100698000A44914215D030B40139551E41F2210265
:1006A80011F8014F082380EA042004044CBF82EAB1
:1006B80040004000013B80B2F7D18D42F0D130BC00
:1006C8007047704703685A1C02601970704700BF72
:1006D8002DE9F047089C2578002B804689460CBFF9
:1006E8004FF0200A4FF0300A661C25B3002A26DD99
:1006F800334601E0024698B113F8011B501E002949
:10070800F8D1971E60B13D46013D51464046C84765
:100718006B1C002BF8DC257827EAE770013045B11F
:10072800041B29464046C847301916F8015B002DBE
:10073800F7D1BDE8F087002A03DC2846F9E7002056
:10074800EEE7571EDFE700BF012321224270037046
:1007580083707047F0B400250E4E00F1FF3C2F4621
:10076800142165B103788B420BD003460CEB0504CA
:1007780003E013F8012F8A4203D0A342F9D1C155EF
:10078800013701350B2D02D016F8011FE9E7F0BC3F
:10079800704700BF6C34030830B41523162517249E
:1007A8002D212E2203702F2345708470C170027191
:1007B800437130BC704700BF06224FF47A73027051
:1007C800436070472DE9F04FDFF8DCC1754CDCF869
:1007D80004502288B4F90AA0C2EB25135200C2EBD8
:1007E800E502B4F902505B436A43B4F904501B13A1
:1007F8005D43AD1305EBE225B5F5FA324FEAE57B2B
:1008080085B04BF1FF33CDE90023DDE900325343D6
:10081800009AA561A2FB0289CDE90201B4F908207A
:100828000199009809EB43095143D31700FB0311C1
:10083800A2FB00230B444FEAEA7B0AFB09F11F03E2
:1008480008FB0B13AAFB080119444FEA102A4AEACD
:10085800016A16034FEA212B47EA12571AEB0602E0
:10086800E6884BEB070312F1000A43F5004BAAFB9D
:10087800060106FB0B114A10CB1752EA030100F0E0
:100888008E80B4F91060009806FB09F1F71708FB91
:100898000711A6FB08673944B4F90E808B46019905
:1008A8004FEAE87908FB01F100FB0911A8FB008970
:1008B8008944DCF808104FEA4947C1F5801C47EA2B
:1008C800D837B2464FEA4846B4F90C801AEB060A04
:1008D80066464BEB070BF7174FEAC806019600264A
:1008E8000096F907DDE900674FEACC7016EB0A06B7
:1008F80047EB0B0741EA5C01801B61EB070140F6FF
:10090800354C8946A0FB0C010CFB091132F016F995
:10091800B4F91620B4F914A04E13470B47EAC1479F
:1009280002FB06FCD31707FB03CCA2FB0723634497
:10093800564307FB0366A2FB07233344560E46EAD9
:10094800C31632184FEA636747EB010380460AFB78
:1009580001F14FEAEA7B08FB0B17AAFB08013944AF
:10096800C60C46EA413612EB06084FEAE147B4F9ED
:10097800122043EB07094FEA182141EA09611301E4
:100988000B44029A0AB11B0A1360039B23B105EBBF
:10099800850580352D121D6005B0BDE8F08F002358
:1009A800EFE700BF8C4B0020641C002070477047A5
:1009B8004FF400638382704707B5F7216A462DF02C
:1009C800C6FF9DF801309DF800100C4A1B0143EA50
:1009D80001339DF8021043EA111393609DF8043027
:1009E8009DF803101B0143EA01339DF8051043EA03
:1009F8001113536003B05DF804FB00BF641C0020B2
:100A0800012380F85430704770B4D0E90041057B69
:100A180002690223AB4063600B684FF6FE70034027
:100A28000B60EFF31183502181F31288D66B316884
:100A3800C9071CD4706870B9D2E909418C4213D037
:100A480095690D44F56017D81469611A7160906250
:100A5800002182F85810326842F00102DBB232609D
:100A680083F3118870BC7047012182F85810DBB2FB
:100A780083F3118870BC7047611A71609462E7E76C
:100A880070B40468037B2268022101FA03F31A4256
:100A980014D001690A4A01EB410102EB41124FF6F9
:100AA800FE7650685289C568006829683140296017
:100AB800C168D24392B20A40C260636070BC70479A
:100AC800DC73002010B50168047B0A680223A34088
:100AD8001A420AD0054A406800241470026822F0BD
:100AE80001021204120C02604B6010BDC5230020E5
:100AF80070B544880546C4F30B04224608460E46E2
:100B0800002132F037FC2B69094A934202D3094A83
:100B1800934205D35BB121463046BDE87040184783
:100B2800224630461946BDE8704032F031BB70BDF0
:100B3800C0A10308D5A20308002301228270037014
:100B48004370C370704700BF2DE9F0478C4A8D4B46
:100B580012781C78D207064648D58B4D012C00F038
:100B680091801ED3022C40F09B808849884A0988CE
:100B78001288884F914201D901241C70EB7AFBB18D
:100B88002B89EBB1844B1B78D3B117F0C9FA002835
:100B980000F0E2802B7B83422CBF012300233B70B3
:100BA8000FE0DFF8E8C17B4F7C4CBCF800002288DE
:100BB800697B521A8242DFDAEB7A0024002BDFD1FC
:100BC8003B782A79632A07D87549022C087800F0FF
:100BD800B880002840F0A0807249AA7A9C4238BFA9
:100BE8001C460C70002A44D1BDE8F087DFF89CC190
:100BF800654DBCF80000BCF8021095F803E06A4F98
:100C0800411A0029A4F10302B8BF4942704597F878
:100C18000080D2B211D32F7887420ED3012A45D94A
:100C2800B8F1020F9AD15C48604A00789080022996
:100C3800CCBF00210121D18090E7B0EB4E0FEDDC55
:100C4800012A40F28C800229EADC0324514F5248E1
:100C580052494F4A1C70B8F1020F4FF000033C7024
:100C680003700B80138089D1504A01219380D18071
:100C780084E7012C6BD0022CB6D10720BDE8F047E1
:100C88002AF020B8424A41491288687B0988121A1A
:100C9800914207DD414A12888A423CBF00241C70F9
:100CA8003C4F6BE702241C703A4F67E70229B7DC18
:100CB80095F800E090FBFEFE0EF1010EBEF1080F64
:100CC800DFF8D4A0AA786978DFF8C490334C314FA4
:100CD800A8BF4FF0080E8AF800E01FFA8EFA11FB41
:100CE8000AF112FB0AF2DFF8B8A0A9F8001092B2D4
:100CF80000214FF06409B8F1020F22803970197091
:100D0800CAF804108AF801907FF452AF274A0121EB
:100D1800A2F804E0D18048E74868301A244EB0426F
:100D2800C8BF4A703FF758AFC2F16402214E00FBBA
:100D380002F086FB0062C017A0EBA2506430487036
:100D48004AE70028E8D101274E600F70ECE7082039
:100D5800BDE8F04729F0B6BF02233B7031E7032C0A
:100D68007FF471AFB8F1020F9AD10B4A0F4B12788A
:100D78009A800229CCBF00210121D980054FFDE6C8
:100D88008C220020035B0020FA200020B8230020DA
:100D9800065B0020105B002094260020045B0020E6
:100DA800085B0020F8200020D81F0020DC1F00204E
:100DB8007F9698006BCA5F6B70B55B4CE36846F230
:100DC800A712C31A93422DED028B02D8BDEC028BF9
:100DD80070BD564BE0601B6813F0040328D1184619
:100DE800534A217F127812F0010215D0D9B9012592
:100DF800C4E908010A46084625770BB14D4B18602F
:100E08004D4B1B780E2BE1D1BDEC028B4B4B1E21B9
:100E180058809A80198070BD29B1D4E90851227789
:100E2800401B4A42E9E7D4E90812401A5242E4E773
:100E3800434E4448B37905882169013BB1FBF3F17E
:100E48009DB3414A9FED410A1368002B1E46B8BF67
:100E5800DE1DA3EBE603194400290B46B8BFCB1DE2
:100E6800DB1007EE903AF8EEE77A116027EE800A79
:100E7800FFF7C0FADFED367A20EE270AFFF700FB0E
:100E8800F7EE007A77EEC07A9FED320AA36967EE33
:100E9800807A9942FDEEE77AC4ED057A3ED0013DAD
:100EA80000230580A16118469AE707EE901A9FED86
:100EB800270A294DF8EE677AB7EE008A27EE800AEE
:100EC800FFF798FADFED227A20EE270AFFF7D8FA23
:100ED800DFED207A38EE400A20EE270A32F0D6F904
:100EE8003389DFED1E6A07EE103A6369C01AB8EE5F
:100EF800C77A07EE900AA7EE668AB8EEE70AD5ED3C
:100F0800097AF8EEE77A20EE080A67EEA67AA7EEE5
:100F1800870A32F0BBF90123686261E70022028088
:100F2800134610465CE700BF641C002034710020A3
:100F38008C22002098260020D81F0020DC1F0020CB
:100F4800D02E0020722F00200000002008942537A2
:100F5800B1DC423ED048874A484B00206F12833AA2
:100F68002DE9F8432E4B1B685B0701D4BDE8F883D5
:100F78002C4C2D4D94F82890B9F1010F3CD1EB6918
:100F8800284698472B69284698472B6A04F12C0174
:100F980004F130009847254A26699179D4E90D83F0
:100FA800D4E90B2008F10107AA625A1C8F4208BF36
:100FB8000027032AE8622AD01D49A26394F83C203E
:100FC80041F823004ABB04EB880804EB8703C8F800
:100FD80040001A6CAB896763B61A3044002220615E
:100FE80084F82820002BC1D0124A642B1268B8BF9D
:100FF80064231361BDE8F8836B6928469847AB6999
:10100800284698470122EB8984F82820EAE7084A0D
:1010180084F83C9000239060A36330F0CFFFD2E7C0
:1010280034710020641C0020484B0020D02E002082
:101038007C770020505A0020012310211122417092
:101048004271037203700371704700BF30B50446E4
:10105800406D21710368A26823F00103036087B023
:101068006379009213F0040F4FEA03324FEA032327
:1010780014BF4FF48055002503F4806302F4005236
:101088000195CDE90223002511F0010305952ED124
:10109800049308238D07694648BF04930AF078FC37
:1010A8002079636D617900F00202002A15BF4FF4C0
:1010B80040324FF480324FF40034002410F0010F16
:1010C800586808BF2246CC074CBF024320EA0202F8
:1010D8005A609A6809074CBF42F0080222F00802D9
:1010E8009A601A6842F001021A6007B030BD042302
:1010F80004930C23CEE700BF30B50446406DA160D1
:10110800036823F0010303606379257987B013F03E
:10111800040F4FEA03324FEA032303F4806302F417
:101128000052CDE90223009114BF4FF480510021F1
:10113800EB0748BF042301914FF00001CDE90411EA
:1011480054BF08230493694648BF0C23AD0748BF22
:1011580004930AF01DFC2079636D617900F00202A6
:10116800002A15BF4FF440324FF480324FF4003458
:10117800002410F0010F586808BF2246CC074CBF66
:10118800024320EA02025A609A6809074CBF42F0FB
:10119800080222F008029A601A6842F001021A60F6
:1011A80007B030BD2DE9F341056906460F467DBB02
:1011B800D0F80080C8F30A0323B30023D6F80080D0
:1011C80001932EF0A7FA042819D1224C236943F081
:1011D80001032361BBB2A8F800302EF09BFA042863
:1011E8002ED108F102030193019B3F0C1F802EF0C2
:1011F80091FA2369042823F00103236125D06FF0B5
:10120800010505E02EF086FA042805D04FF0FF35D9
:10121800284602B0BDE8F0810E4C236943F0020372
:101228002361C4F81480236943F0400323612EF03E
:1012380071FA2369042823F002032361BDD0E5E78E
:10124800236923F001032361D9E73368043333604A
:10125800DEE700BF00200240F8B504460D468E18B0
:101268000027B54201D12069F8BDE368591CE16047
:10127800234415F8012B1A720429F2D1A1682046DB
:10128800FFF790FFC4E90370EBE700BF38B52C22E5
:10129800002132F06FF80346642140F2DC5240F23C
:1012A800022019745A821321202240F21A4540F272
:1012B8006C74188399760E2002211A7701229D8278
:1012C800DC8240F2753540F6430483F8220083F847
:1012D8002A109A7383F82920DD831C841946024852
:1012E800BDE838401EF004BD546203082DF016BC5A
:1012F80038B50D4B1B6893B90C4B1D7875B10C4B69
:10130800002003EBC5051A6899885062D468214308
:10131800D160083323F8040CAB42F4D138BD13F084
:101328002FFE0028E8D138BD442F0020DC760020AD
:10133800E0760020664B67482DE9F0415C220124E5
:10134800654E1C70002132F015F8644A6449654DF9
:10135800002330460B60136029F0F6F8214620463A
:1013680029F040F92146062029F03CF96F795E4BB7
:10137800391C1A8E5D4B93FBF2F318BF0121642BC5
:10138800B8BF64230820C6F8483129F02BF995F82E
:10139800068018F100014FF0090018BF012129F05B
:1013A80021F9AB7A002B5CD0514C002F63D118F196
:1013B800000118BF01214F4D0A2029F013F92B68AD
:1013C800D8075AD4990773D40121052029F00AF9BE
:1013D8000021072029F006F901210B2029F002F944
:1013E80029680C20C1F3800129F0FCF82B685A0702
:1013F80056BF21680121C1F3C0110D2029F0F2F870
:1014080021684B0545D4C1F300410F2029F0EAF8C3
:10141800216811F4802104D0374B1968003118BFB6
:101428000121102029F0DEF821681120C1F3C061E4
:1014380029F0D8F80121122029F0D4F8012113202D
:1014480029F0D0F80121142029F0CCF82B4B196889
:1014580000314FF0150018BF0121BDE8F04129F017
:10146800C1B8EB7A224C002B9FD1216811F480215E
:10147800A1D0002F9BD001219DE7214B1B68642B35
:10148800B8BF642301210220B36729F0ABF82B68A9
:1014980098E701210E2029F0A5F81A4B21681B7A3C
:1014A800083B012B9CBF4FF4FA63C6F8E832AAE761
:1014B8000121032029F096F8134B5B6A642BB8BF0F
:1014C800642301210420C6F8AC3029F08BF87BE7AF
:1014D800745B0020185B002064160020785B0020F5
:1014E800145B0020FA200020F07F002040420F000B
:1014F8003071002034710020C0230020782C002097
:10150800986A002024770020A426002002280FD8FB
:10151800094A0A4B0A4910B400EB40041070013024
:1015280003EB4413C0B25DF8044B0B6029F0B4BC64
:101538000130C0B229F0B0BCE88200203C40002055
:10154800E026002070B53D4B3D481A785B783D4950
:101558003D4C3E4D02EB420203EBC30301EB430358
:1015680000EB42122B60226027F048F8002130225D
:10157800374831F0FFFE206823F0DCF9354B256849
:1015880003F1780102E006338B4255D01A78002A1D
:10159800F9D19C78D878844202D358790028F2D0BF
:1015A8002D492E4B0C792E4EC820642111FB0401C5
:1015B80059602C4C2C4832700021C3E90211C3E950
:1015C8000411C3E9061183F8201083F82110274B72
:1015D8000560C4F800311DF07DFEB4F804319FEDBC
:1015E800245A244A94F806119FED236A507906EE8E
:1015F800903AF8EEE66A1388C5EE265A07EE103AD6
:101608001E4B1960538812791D4907EE903AB8EEBF
:10161800C77A1C4BC1ED005AF8EEE77A18725A7275
:1016280027EE067A67EE867ABDE8704083ED017A88
:10163800C3ED007A0CF006B90122B1E7E882002078
:101648003C40002086410020E0260020E4260020BF
:101658007C350020884C002018580020A822002043
:1016680050010020641C0020B035002002450020F5
:10167800C0C9FB48D05B002017B7D138685100209B
:101688006C51002040510020F0B40C292BD8DFE821
:1016980001F0752A2A2A502A2A2A2C2A2A2A0700DF
:1016A800046AB2F80CC0978816686B4D24F480540D
:1016B8000462036A4468C16923F4005343EA0C33A3
:1016C80021F4E641A84243EA073341EA062100F043
:1016D800BC8005F50065A84200F0B78092684460B8
:1016E800C16102640362F0BC7047046AB2F80CC0BE
:1016F80097881668584D24F480740462036A446815
:10170800C16923F4007343EA0C2321F07301A84252
:1017180043EA072341EA060100F0848005F50065E5
:10172800A8427FD092684460C161F0BCC263036282
:101738007047046AB2F80CC097881668464D24F0C2
:1017480010040462036A4468816923F0200321F0CD
:10175800807143EA0C1321F4E641A84243EA0713D7
:1017680041EA06214BD005F50065A84247D09268AA
:1017780044608161F0BC826303627047046A9389A4
:10178800B2F804C01768344E24F001040462046AF5
:101798004568816921F4803124F0020443EA0C038E
:1017A80021F07301B04243EA040341EA07010ED075
:1017B8002A4CA0420BD004F54064A04207D004F59F
:1017C8008064A04203D004F58064A04210D1D4897B
:1017D800168A578AB2F806C023F00803234325F473
:1017E800407523F0040346EA07044CEA0303254343
:1017F800926845608161F0BC426303627047D58995
:10180800178AD68823F0800343EA051324F440643A
:10181800558A23F0400344EA870443EA061344EA5E
:101828008504A4E7D589178AD68823F4006343EA98
:10183800052324F44054558A23F4806344EA0714AA
:1018480043EA062344EA05146CE7158A24F4804425
:1018580044EA851442E700BF002C014000340140EF
:101868002DE9F84FF022DFF834B28248824E834FD8
:10187800DFF82C82DFF82C92DFF82CA2002131F05F
:1018880079FD7F48DFF824C2DFF824E20BF1E00598
:101898005C462368B34200F0D080B3F1804F00F07B
:1018A800CE80BB4200F0CD80634500F0D880734500
:1018B80000F0D780434500F0D6804B4500F0D58036
:1018C800534500F0D4806F4A934200F0978002F5A8
:1018D8008062934208BF092300F091801C34A5421E
:1018E800D7D1694E694D4FF003094FF002089BF8B4
:1018F8000630002B7BD09BF804301F09013F052FD1
:1019080003F00F0373D836F8170040FA03F2D20732
:101918006DD54FF0010A0AFA03F3013B184031F084
:101928005DF95B4BDB5D184415EBC0075FD055F8DC
:10193800303058489BF8081003F13842920A825C0C
:1019480002F01F005209022A0AFA00FA00F0818008
:10195800032A78D0012A04D1494842694AEA020296
:101968004261B7F804C0BCFA8CF2C2F11F0292B20D
:10197800D00803EB800002F00702076A92004FF0DC
:101988000F0E0EFA02FE27EA0E070762076A01FA2F
:1019980002F23A4302624FF0010E00220EFA02F7F9
:1019A80037EA0C0120D15000D3F808A009FA00F159
:1019B800C9430AEA010AC3F808A0D3F808A0C3F883
:1019C80008A0B3F804A02AEA07079F809F88BFB23F
:1019D8009F801F680F401F601F6808FA00F0384397
:1019E8001860D8680140D9600132102AD6D10BF1AD
:1019F8001C0B5C457FF47BAFBDE8F88F0823264AB3
:101A080002EBC303012293F8243003F01F015B09A2
:101A1800022B02FA01F208D0032B0AD0012B7FF423
:101A28005DAF43691A43426158E783691A4382618B
:101A380054E7C3691A43C26150E70023DFE7012373
:101A4800DDE70223DBE70E48C2694AEA0202C26107
:101A580087E70B4882694AEA0202826181E7032329
:101A6800CDE70423CBE70523C9E70623C7E7072308
:101A7800C5E700BF98640020002C01400004004026
:101A88000010024000440140D05D0308486900206E
:101A9800DC5D0308B85C030858340308F05C0308ED
:101AA800001400400034014000400140000800409C
:101AB8000010004000B9704703682DE9F04F03F1AA
:101AC80038449C4EA40A0125345D04F01F066409BD
:101AD800022C05FA06F500F07481032C00F06C81E5
:101AE800012C00F022818088B0FA80F4C4F11F0430
:101AF800A4B2E50803EB850504F007042E6AA400E8
:101B08000F27A74026EA07062E622E6A01F0030770
:101B1800A2407C1E3243012CC1F3810EC1F3001890
:101B28002A62C1F3411140F20981C6070BD51A6830
:101B380022F003021A601A683A431A60DA6822F03F
:101B480003020A43DA6085070DD51A6822F00C02F1
:101B58001A601A6842EA87021A60DA6822F00C02F0
:101B680042EA8102DA6044070DD51A6822F0300291
:101B78001A601A6842EA07121A60DA6822F030021C
:101B880042EA0112DA6002070DD51A6822F0C00293
:101B98001A601A6842EA87121A60DA6822F0C002EC
:101BA80042EA8112DA60C6060DD51A6822F440723C
:101BB8001A601A6842EA07221A60DA6822F4407248
:101BC80042EA0122DA6085060DD51A6822F44062DD
:101BD8001A601A6842EA87221A60DA6822F44062B8
:101BE80042EA8122DA6044060DD51A6822F440528E
:101BF8001A601A6842EA07321A60DA6822F4405218
:101C080042EA0132DA6002060DD51A6822F440422F
:101C18001A601A6842EA87321A60DA6822F4404287
:101C280042EA8132DA60C6050DD51A6822F44032DC
:101C38001A601A6842EA07421A60DA6822F44032E7
:101C480042EA0142DA6085050DD51A6822F440227D
:101C58001A601A6842EA87421A60DA6822F4402257
:101C680042EA8142DA6044050DD51A6822F440122E
:101C78001A601A6842EA07521A60DA6822F44012B7
:101C880042EA0152DA6002050DD51A6822F44002D0
:101C98001A601A6842EA87521A60DA6822F4400227
:101CA80042EA8152DA60C6040DD51A6822F0407201
:101CB8001A601A6842EA07621A60DA6822F040720B
:101CC80042EA0162DA6085040DD51A6822F04062A2
:101CD8001A601A6842EA87621A60DA6822F040627B
:101CE80042EA8162DA6044040DD51A6822F0405253
:101CF8001A601A6842EA07721A60DA6822F04052DB
:101D080042EA0172DA6002040DD51A6822F04042F4
:101D18001A601A6842EA87771F60DA6822F0404240
:101D280042EA8171D960BDE8F08F034C666935439A
:101D38006561D8E6B85C03080010024000224FF045
:101D4800010C4FF003090CFA02F636EA00042ED112
:101D58005400D3F808A009FA04F5ED4305EA0A0A85
:101D6800C3F808A0D3F808B00EFA04FA4AEA0B0A36
:101D7800C3F808A0B3F804A02AEA06069E80B3F8C0
:101D880004A008FA02F646EA0A06B6B29E801E6861
:101D98002E401E60D3F800A007FA04F646EA0A06A9
:101DA8001E60DE6801FA04F435402C43DC60013221
:101DB800102AC8D1BDE8F08F044CE6693543E561C7
:101DC80091E6024CA6693543A5618CE600100240F5
:101DD80003682DE9F04F03F13845A94EAD0A0124F7
:101DE800755D05F01F066D09022D04FA06F400F072
:101DF8008D81032D00F08581012D00F03B818088C5
:101E0800B0FA80F4C4F11F04A4B2E50803EB850519
:101E180004F007042E6AA4000F27A74026EA070645
:101E28002E622E6A01F0030702FA04F47A1E344384
:101E3800012AC1F3810EC1F300182C62C1F34111CC
:101E480040F22281C60700F10881850700F1F6807B
:101E5800440700F1E480020700F1D280C60600F1D1
:101E6800C080850600F1AE80440600F19C80020621
:101E780000F18A80C60578D4850567D4440556D410
:101E8800020545D4C60434D4850423D4440412D4AA
:101E9800020401D4BDE8F08F1A6822F040421A60AB
:101EA8001A6842EA87771F60DA6822F0404242EAFD
:101EB8008171D960EEE71A6822F040521A601A68F8
:101EC80042EA07721A60DA6822F0405242EA017266
:101ED800DA60DDE71A6822F040621A601A6842EA9E
:101EE80087621A60DA6822F0406242EA8162DA6048
:101EF800CCE71A6822F040721A601A6842EA076250
:101F08001A60DA6822F0407242EA0162DA60BBE7DE
:101F18001A6822F440021A601A6842EA87521A6064
:101F2800DA6822F4400242EA8152DA60AAE71A68C3
:101F380022F440121A601A6842EA07521A60DA68F4
:101F480022F4401242EA0152DA6099E71A6822F450
:101F580040221A601A6842EA87421A60DA6822F454
:101F6800402242EA8142DA6088E71A6822F4403265
:101F78001A601A6842EA07421A60DA6822F44032A4
:101F880042EA0142DA6077E71A6822F440421A60AE
:101F98001A6842EA87321A60DA6822F4404242EA52
:101FA8008132DA6066E71A6822F440521A601A68C9
:101FB80042EA07321A60DA6822F4405242EA0132F1
:101FC800DA6054E71A6822F440621A601A6842EA32
:101FD80087221A60DA6822F4406242EA8122DA60D3
:101FE80042E71A6822F440721A601A6842EA072225
:101FF8001A60DA6822F4407242EA0122DA6030E7B5
:102008001A6822F0C0021A601A6842EA87121A6037
:10201800DA6822F0C00242EA8112DA601EE71A6822
:1020280022F030021A601A6842EA07121A60DA6867
:1020380022F0300242EA0112DA600CE71A6822F054
:102048000C021A601A6842EA87021A60DA6822F0FB
:102058000C0242EA8102DA60FAE61A6822F0030208
:102068001A601A683A431A60DA6822F003020A43CF
:10207800DA60EAE6034D6E6934436C61BFE600BF7F
:10208800B85C03080010024000224FF0010C4FF02A
:1020980003090CFA02F636EA00042ED15400D3F8EC
:1020A80008A009FA04F5ED4305EA0A0AC3F808A0EE
:1020B800D3F808B00EFA04FA4AEA0B0AC3F808A0E3
:1020C800B3F804A02AEA06069E80B3F804A008FA2A
:1020D80002F646EA0A06B6B29E801E682E401E60C8
:1020E800D3F800A007FA04F646EA0A061E60DE687E
:1020F80001FA04F435402C43DC600132102AC8D1BF
:10210800C8E6054DEE693443EC6178E6024DAE69E8
:102118003443AC6173E600BF0010024010B50409F7
:10212800013C052C17D80E4B33F8142000F00F0093
:1021380042FA00F313F001030FD0012303FA00F071
:102148000138104030F04AFD064A074B125D104432
:1021580003EBC00010BD002010BD184610BD00BF25
:10216800D05D0308DC5D0308486900202DE9F843C9
:102178002F4D2A69EB6812EA030826D02D4E4FF03E
:102188000047B8FA88F327FA03F2D2431B3B2A61C7
:1021980008EA0208042B15D8DFE803F0372D2319C5
:1021A8000300D6F8EC30002B39D1EB6A1FFA83F91B
:1021B800D6F8E84034B12368204649469847646811
:1021C800002CF8D1B8F1000FDBD1BDE8F883D6F8C0
:1021D800C800696B036889B29847B8F1000FD0D17D
:1021E800F3E7D6F8CC00A96B036889B29847B8F131
:1021F800000FC6D1E9E7D6F8D000E96B036889B2C9
:102208009847B8F1000FBCD1DFE7D6F8D400296CA5
:10221800036889B29847B8F1000FB2D1D5E703F146
:10222800FF3900231FFA89F9C6F8EC30C0E700BF70
:1022380000400140986400202DE9F8432F4D2A6999
:10224800EB6812EA030826D02D4E4FF00047B8FA83
:1022580088F327FA03F2D2431B3B2A6108EA0208F3
:10226800042B15D8DFE803F0372D23190300D6F81F
:10227800C430002B39D1EB6A1FFA83F9D6F8C04075
:1022880034B123682046494698476468002CF8D141
:10229800B8F1000FDBD1BDE8F883D6F8A000696B70
:1022A800036889B29847B8F1000FD0D1F3E7D6F8A0
:1022B800A400A96B036889B29847B8F1000FC6D18A
:1022C800E9E7D6F8A800E96B036889B29847B8F13E
:1022D800000FBCD1DFE7D6F8AC00296C036889B2DF
:1022E8009847B8F1000FB2D1D5E703F1FF390023C1
:1022F8001FFA89F9C6F8C430C0E700BF00340140AE
:10230800986400202DE9F8432F4D2A69EB6812EAFA
:10231800030826D02D4E4FF00047B8FA88F327FA65
:1023280003F2D2431B3B2A6108EA0208042B15D8A2
:10233800DFE803F0372D23190300D6F8C430002B4B
:1023480039D1EB6A1FFA83F9D6F8C04034B1236853
:102358002046494698476468002CF8D1B8F1000F28
:10236800DBD1BDE8F883D6F8A000696B036889B2B1
:102378009847B8F1000FD0D1F3E7D6F8A400A96BBD
:10238800036889B29847B8F1000FC6D1E9E7D6F8D3
:10239800A800E96B036889B29847B8F1000FBCD16F
:1023A800DFE7D6F8AC00296C036889B29847B8F122
:1023B800000FB2D1D5E703F1FF3900231FFA89F9DD
:1023C800C6F8C430C0E700BF00340140986400205C
:1023D8002DE9F8432E4D2A69EB6812EA030826D046
:1023E8002C4E4FF00047B8FA88F327FA03F2D2438D
:1023F8001B3B2A6108EA0208042B15D8DFE803F022
:10240800352B22190300D6F89C30002B37D1EB6A04
:102418001FFA83F9D6F8984034B123682046494614
:1024280098476468002CF8D1B8F1000FDBD1BDE8FB
:10243800F883B06F696B036889B29847B8F1000FE9
:10244800D1D1F4E7F06FA96B036889B29847B8F166
:10245800000FC8D1EBE7D6F88000E96B036889B2B2
:102468009847B8F1000FBED1E1E7D6F88400296C8F
:10247800036889B29847B8F1000FB4D1D7E703F1E0
:10248800FF3900231FFA89F9C6F89C30C2E700BF5C
:1024980000080040986400202DE9F8432B4D2A6974
:1024A800EB6812EA030824D0294E4FF00047B8FA27
:1024B80088F327FA03F2D2431B3B2A6108EA020891
:1024C800042B13D8DFE803F0322920170300736FB9
:1024D800002B34D1EB6A1FFA83F9346F34B12368C7
:1024E8002046494698476468002CF8D1B8F1000F97
:1024F800DDD1BDE8F883306D696B036889B2984710
:10250800B8F1000FD3D1F4E7706DA96B036889B2F5
:102518009847B8F1000FCAD1EBE7B06DE96B0368D3
:1025280089B29847B8F1000FC1D1E2E7F06D296C84
:10253800036889B29847B8F1000FB8D1D9E703F119
:10254800FF3900231FFA89F97367C6E700040040C2
:10255800986400202DE9F8434FF080452A69EB681C
:1025680012EA030824D0294E4FF00047B8FA88F33E
:1025780027FA03F2D2431B3B2A6108EA0208042B1C
:1025880013D8DFE803F0322920170300F36C002B7F
:1025980034D1EB6A1FFA83F9B46C34B1236820464E
:1025A800494698476468002CF8D1B8F1000FDDD18E
:1025B800BDE8F883B06A696B036889B29847B8F1D7
:1025C800000FD3D1F4E7F06AA96B036889B2984782
:1025D800B8F1000FCAD1EBE7306BE96B036889B239
:1025E8009847B8F1000FC1D1E2E7706B296C036816
:1025F80089B29847B8F1000FB8D1D9E703F1FF398C
:1026080000231FFA89F9F364C6E700BF9864002025
:102618002DE9F8432B4D2A69EB6812EA030824D008
:10262800294E4FF00047B8FA88F327FA03F2D2434D
:102638001B3B2A6108EA0208042B13D8DFE803F0E1
:10264800322920170300736A002B34D1EB6A1FFA72
:1026580083F9346A34B12368204649469847646848
:10266800002CF8D1B8F1000FDDD1BDE8F88330684F
:10267800696B036889B29847B8F1000FD3D1F4E7C2
:102688007068A96B036889B29847B8F1000FCAD17E
:10269800EBE7B068E96B036889B29847B8F1000FB7
:1026A800C1D1E2E7F068296C036889B29847B8F1AC
:1026B800000FB8D1D9E703F1FF3900231FFA89F9D0
:1026C8007362C6E7002C0140986400202DE9F843A6
:1026D8002B4D2A69EB6812EA030824D0294E4FF0E3
:1026E8000047B8FA88F327FA03F2D2431B3B2A6162
:1026F80008EA0208042B13D8DFE803F03229201770
:102708000300736A002B34D1EB6A1FFA83F9346A29
:1027180034B123682046494698476468002CF8D1AC
:10272800B8F1000FDDD1BDE8F8833068696B036844
:1027380089B29847B8F1000FD3D1F4E77068A96B54
:10274800036889B29847B8F1000FCAD1EBE7B068BF
:10275800E96B036889B29847B8F1000FC1D1E2E785
:10276800F068296C036889B29847B8F1000FB8D1AE
:10277800D9E703F1FF3900231FFA89F97362C6E725
:10278800002C014098640020F0B50668494CB30A53
:10279800A34200F08C800AD9474CA34263D003348B
:1027A800A34200F08180053CA3425FD0F0BDB3F5A1
:1027B800801F76D0013CA342F8D17027022590F8FB
:1027C80005C002232CFA03F084468340A8000029A0
:1027D80054D0D6F80CE044190CEB440C9BB2374C9F
:1027E80043EA0E030CF1040E44F82C1044F82E2092
:1027F800F360E319EFF31181502282F31288421932
:1028080004EBC202D2F810C0BCF1000F03D044F8A8
:1028180007C013690433421904EBC202576917B1A0
:102828001F6053690433421904EBC202976917B158
:102838001F6093690433421904EBC202D76917B1C8
:102848001F60D36904330022C9B21A6081F311886A
:10285800284404EBC004236A5BB9F3684FF6FE72A0
:102868001340F360F0BDC0270425A8E72027002502
:10287800A5E7F36843F00103F360F0BDD6F80CE078
:102888000E4CDB439BB203EA0E0300EB050E0CEB88
:102898004E0CF3600CF1040344F82C1044F8232088
:1028A800A7E7482701258AE7E827052587E7982726
:1028B800032584E7020010004D00100098640020F2
:1028C80030B503685A4D18885A4CB4FBF2F20139F6
:1028D800013AAB4294B283B089B282B20DD0564865
:1028E80083420AD0B3F1804F07D0A0F598308342D5
:1028F80003D000F58060834202D122F0700292B2C8
:102908004E4883426AD000F58060834241D022F469
:10291800407200F58C3092B283421A80D9621C85CD
:1029280065D100221A8601225A611A88404942F06C
:1029380001028B421A806AD0B3F1804F69D0404AB5
:10294800934268D002F58062934266D002F5006235
:10295800934264D002F58062934262D002F59032CD
:10296800934260D002F5406293425ED002F58062E5
:10297800934217D002F58062934208BF092212D011
:1029880002A84FF0012340F8043D08F03DFC03B0D5
:1029980030BD01201A80D9621C8558611A8802430B
:1029A8001A80C9E70822274B03EBC20301A893F852
:1029B80025408DF80440012300228DF805308DF85C
:1029C80007308DF8062008F01FFC1B2CDFD11E4BAA
:1029D800019301A808F018FC03B030BD01201A804B
:1029E800D9621C8558611A8802431A80A7E7124ADF
:1029F800934296D002F54062934292D002F58062EB
:102A080093428ED002F5806293428AD08BE70022EF
:102A1800C9E70122C7E70222C5E70322C3E7042268
:102A2800C1E70522BFE70622BDE70722BBE700BFD3
:102A3800002C014000A24A0400340140001000406C
:102A4800000400405834030819010001204B984243
:102A58002DD0B0F1804F2CD0A3F5943398422AD0D2
:102A680003F58063984228D003F50063984226D086
:102A780003F58063984224D003F59033984222D01E
:102A880003F54063984220D003F58063984207D04D
:102A980003F58063984208BF092202D000207047DE
:102AA80008220C4B03EBC20393F824007047002262
:102AB800F7E70122F5E70222F3E70322F1E7042210
:102AC800EFE70522EDE70622EBE70722E9E700BF7B
:102AD800002C014058340308002330B40F4A1D4627
:102AE800012404E00133082B0DD012F81C4C30EA05
:102AF800040402F11C02F5D1A94207D001330135C3
:102B0800082BEDB2F1D1002030BC7047044AC3EB6A
:102B1800C30302EB830330BC18797047125D0308C6
:102B2800F05C030810B5002104460120FFF7D4FF2C
:102B3800207010BD68B10A4A2421002301E012F870
:102B48001C1C884202F11C0204D00133082BF6D168
:102B5800002070470348C3EBC30300EB83007047B2
:102B6800105D0308F05C03082DE9F04F013085B0D3
:102B7800C3B20393994C9A4FDFF874A2994D9A4EB9
:102B88000A2302932BF00AFD4FF4FA73DFF86CE284
:102B980001934FF01008DAF80430C3F30803002B50
:102BA80040F0D980EFF31183002B40F0D4802068E7
:102BB800AA6823689842FAD133689A42F7D8D7F8B6
:102BC80000C04FF47A7101FB0CF39B1AB3FBFCF3C2
:102BD80001FB00304FF47A7C4FF00109DAF8043039
:102BE800C3F30803002B40F09880EFF31183002B08
:102BF80040F093802368A96822689342FAD132682A
:102C08009142F7D83A680CFB02FBABEB0101B1FB30
:102C1800F2F10CFB03131B1AB3F57A7FDED3019B89
:102C2800013B0193B7D103982BF030FB4FF47A7333
:102C3800DFF8C8E101934FF01008DAF80430C3F365
:102C48000803002B40F0A880EFF31183002B40F01D
:102C5800A3802068AA6823689842FAD133689A4208
:102C6800F7D8D7F800C04FF47A7101FB0CF39B1A20
:102C7800B3FBFCF301FB00304FF47A7C4FF0010901
:102C8800DAF80430C3F308034BBBEFF3118333BB0B
:102C98002368A96822689342FAD132689142F7D82A
:102CA8003A680CFB02FBABEB0101B1FBF2F10CFB48
:102CB80003131B1AB3F57A7FE2D3019B013B0193FF
:102CC800BBD1029B013B02937FF45CAF4749484B61
:102CD8004848494A0860DA6005B0BDE8F08FEFF36C
:102CE800118188F31288D5F808B02B68DB0344BF3C
:102CF800CEF80090D5F808B02368DEF80020C9B2F5
:102D080081F31188396813440CFB01F2A2EB0B0222
:102D1800B2FBF1F20CFB0323CBE7EFF3118188F34D
:102D28001288D5F808B02B68DB0344BFCEF80090B2
:102D3800D5F808B02368DEF80020C9B281F31188FD
:102D4800396813440CFB01F2A2EB0B02B2FBF1F25F
:102D58000CFB03235FE7EFF3118388F31288D5F8A0
:102D680008C02A68D20304D50122CEF80020D5F87D
:102D780008C02068DEF80090DBB283F31188396858
:102D88004FF47A72484402FB01F3A3EB0C03B3FB44
:102D9800F1F302FB00301DE7EFF3118388F312888B
:102DA800D5F808C02A68D20304D50122CEF800203D
:102DB800D5F808C02068DEF80090DBB283F31188EC
:102DC80039684FF47A72484402FB01F3A3EB0C0311
:102DD800B3FBF1F302FB00304EE700BF445C002078
:102DE800485C002010E000E04C5C0020FC9F0020C4
:102DF80000ED00E0EFBEADDE0400FA05405C002007
:102E08002DE9F04F85B0CDE902109B4DDFF878A28F
:102E1800029B013B0293013300F02A812BF0BEFB99
:102E2800964C974FDFF864E2964E4FF4FA7301938D
:102E38004FF01008DEF80430C3F30803002B40F00D
:102E4800F680EFF31183002B40F0F1802068AA6828
:102E580023689842FAD133689A42F7D8D7F800C065
:102E68004FF47A7101FB0CF39B1AB3FBFCF301FBE3
:102E780000304FF47A7C4FF00109DEF80430C3F3D8
:102E88000803002B40F0B580EFF31183002B40F0CE
:102E9800B0802368A96822689342FAD132689142C7
:102EA800F7D83A680CFB02FBABEB0101B1FBF2F17E
:102EB8000CFB03131B1AB3F57A7FDED3019B013B8E
:102EC8000193B7D1039B6F4E581CC0B22BF0DEF9AB
:102ED800DFF8B8E14FF47A730193DEF80430C3F3F6
:102EE80008034FF01008002B44D1EFF31183002B97
:102EF80040D12068AA6823689842FAD133689A4278
:102F0800F7D8D7F800C04FF47A7101FB0CF39B1A7D
:102F1800B3FBFCF301FB00304FF47A7C4FF001095E
:102F2800DEF80430C3F30803002B44D1EFF3118318
:102F3800002B40D12368A96822689342FAD13268ED
:102F48009142F7D83A680CFB02FBABEB0101B1FBED
:102F5800F2F10CFB03131B1AB3F57A7FE0D3019B44
:102F6800013B01933FF454AFDEF80430C3F3080388
:102F7800002BBAD0EFF3118388F31288D5F808C074
:102F88002A68D20304D50122CAF80020D5F808C05F
:102F98002068DAF80090DBB283F3118839684FF4BF
:102FA8007A72484402FB01F3A3EB0C03B3FBF1F381
:102FB80002FB0030B0E7EFF3118188F31288D5F8EF
:102FC80008B02B68DB0344BFCAF80090D5F808B0F6
:102FD8002368DAF80020C9B281F3118839681344EC
:102FE8000CFB01F2A2EB0B02B2FBF1F20CFB032388
:102FF800B1E7EFF3118188F31288D5F808B02B6890
:10300800DB0344BFCAF80090D5F808B02368DAF8A3
:103018000020C9B281F31188396813440CFB01F20E
:10302800A2EB0B02B2FBF1F20CFB032342E7EFF336
:10303800118388F31288D5F808C02A68D20304D50A
:103048000122CAF80020D5F808C02068DAF80090F4
:10305800DBB283F3118839684FF47A72484402FB73
:1030680001F3A3EB0C03B3FBF1F302FB003000E721
:1030780005B0BDE8F08F00BF10E000E0445C002020
:10308800485C00204C5C0020405C002000ED00E023
:10309800224B5B68C3F3080330B4D3B9EFF3118351
:1030A800BBB91F4A1F4D20481368846811688B42BA
:1030B800FAD129688C42F7D81C4A11684FF47A7201
:1030C80002FB01F0001B30BCB0FBF1F002FB030077
:1030D8007047EFF31182102383F3128803F1E02382
:1030E800D2B29C68196811F4803F11491EBF0120B3
:1030F80008609C680A4B18680B6882F311880B4AB1
:1031080011684FF47A72034402FB01F0001B30BCD3
:10311800B0FBF1F002FB0300704700BF00ED00E0D8
:10312800445C00204C5C002010E000E0485C00207B
:10313800405C00202DE9F84F8046274C274DDFF8EA
:10314800A490274EFFF7A4FFDFF89CE0DFF89CC0AF
:103158004FF0100A4FF47A77DCF80430C3F3080311
:10316800CBB9EFF31183B3B92368A96822689342F6
:10317800FAD132689142F7D8DEF8002007FB02FB4B
:10318800ABEB0101B1FBF2F107FB03131B1A43453B
:10319800E2D3BDE8F88FEFF311818AF31288D5F8EE
:1031A80008B02B68DB0304D50123C9F80030D5F833
:1031B80008B02368D9F80020C9B281F31188DEF875
:1031C8000010134407FB01F2A2EB0B02B2FBF1F271
:1031D80007FB0323DAE700BF445C002010E000E0AF
:1031E8004C5C0020405C0020485C002000ED00E0C2
:1031F8002DE9F04FDFF834C1494CDFF834E1DFF84E
:103208003481484E824648481AF1FF3AC0F0868019
:10321800DCF80430C3F30803002B5ED1EFF311830D
:10322800002B5AD10568A26803689D42FAD1336819
:103238009A42F7D8DEF800704FF47A7101FB07F371
:103248009B1AB3FBF7F301FB0535DCF80430C3F335
:1032580008034FF010094FF47A77F3B9EFF31183AD
:10326800DBB90368A16802689342FAD132689142D7
:10327800F7D8DEF8002007FB02FBABEB0101B1FB3E
:10328800F2F107FB03135B1BB3F57A7FBCD2DCF8C2
:103298000430C3F30803002BE0D0EFF3118189F366
:1032A8001288D4F808B02368DB0304D50123C8F8D2
:1032B8000030D4F808B00368D8F80020C9B281F308
:1032C8001188DEF80010134407FB01F2A2EB0B0291
:1032D800B2FBF1F207FB0323D5E7EFF311831022CA
:1032E80082F31288A1682268D20303D50122C8F8A4
:1032F8000020A168D0F80090D8F80050DBB283F322
:103308001188DEF800704FF47A724D4402FB07F31F
:103318005B1AB3FBF7F302FB053596E7BDE8F08FC0
:1033280010E000E04C5C0020445C002000ED00E070
:10333800485C0020405C002030B4EFF31183102279
:1033480082F31288084809490268094D094C01327C
:1033580002608A682A6000222260DBB20A6883F36E
:10336800118830BC704700BF445C002010E000E0CA
:103378004C5C0020405C00201D4B70B59C68636D60
:10338800A26BDD69CAB1E36B33B12B0700D470BD02
:10339800636D08221A6270BD2A06F6D5D4E90902BF
:1033A8008242616D11D0501CA669A062B25C266988
:1033B8000A85B042E9D3A362E7E7A906E3D5E26A42
:1033C80042B1988C216B9047DDE70B6823F08003AE
:1033D8000B60DAE7E1699B8C6069DBB24E1CE66141
:1033E8004354E169E368994228BFE261CBE700BF33
:1033F800843B00201D4B70B55C68636DA26BDD6972
:10340800CAB1E36B33B12B0700D470BD636D0822DA
:103418001A6270BD2A06F6D5D4E909028242616DA6
:1034280011D0501CA669A062B25C26690A85B04218
:10343800E9D3A362E7E7A906E3D5E26A42B1988C2B
:10344800216B9047DDE70B6823F080030B60DAE718
:10345800E1699B8C6069DBB24E1CE6614354E1690B
:10346800E368994228BFE261CBE700BF843B0020B4
:103478001D4B70B51C68636DA26BDD69CAB1E36B47
:1034880033B12B0700D470BD636D08221A6270BD7A
:103498002A06F6D5D4E909028242616D11D0501C82
:1034A800A669A062B25C26690A85B042E9D3A36224
:1034B800E7E7A906E3D5E26A42B1988C216B904709
:1034C800DDE70B6823F080030B60DAE7E1699B8C8A
:1034D8006069DBB24E1CE6614354E169E3689942D6
:1034E80028BFE261CBE700BF843B0020002A12DD41
:1034F80070B504460D468E18236820469B68984789
:103508000028F9D0236815F8011B1B682046984746
:10351800B542F1D170BD70470368DB6A03B1184743
:10352800704700BF03689B6A03B11847704700BF24
:1035380003682DE9F0415D6A1DB12B46BDE8F041F5
:103548001847002A174611DD04460E460F4400E0CE
:1035580023689B68204698470028F9D0236816F806
:10356800011B1B6820469847BE42F1D1BDE8F08197
:1035780003685B69184700BF0368DB68184700BF2A
:1035880003689B68184700BF03685B68184700BF5B
:1035980003681B68184700BF014BD3F80801F7E719
:1035A800641C0020054B53F8203033B11A689B88FF
:1035B800918A0B4218BF1B0493617047105C00206E
:1035C800036803F138422DE9F04F920AA74DAA5C2F
:1035D80002F01F0552090124022A04FA05F400F03A
:1035E8009F81032A00F09781012A00F0518101F0A0
:1035F80003077A1E012AC1F3810EC1F300188488DB
:10360800C1F3411140F24981E60700F13181A50774
:1036180000F11A81600700F10581220700F1F080AE
:10362800E60600F1DB80A50600F1C680600600F121
:10363800B180220600F19C80E60500F18780A5058F
:1036480072D460055FD422054CD4E60439D4A504AD
:1036580026D4600413D4220401D4BDE8F08F1A687C
:1036680022F040421A601A6842EA87771F60DA68D7
:1036780022F0404242EA8171D960BDE8F08F1A68B1
:1036880022F040521A601A6842EA07721A60DA6831
:1036980022F0405242EA0172DA602204DDD5DEE708
:1036A8001A6822F040621A601A6842EA87621A6051
:1036B800DA6822F0406242EA81626004DA60CAD5C0
:1036C800DDE71A6822F040721A601A6842EA076257
:1036D8001A60DA6822F0407242EA0162A504DA60F0
:1036E800B7D5DDE71A6822F440021A601A6842EA80
:1036F80087521A60DA6822F4400242EA8152E604EC
:10370800DA60A4D5DDE71A6822F440121A601A6854
:1037180042EA07521A60DA6822F4401242EA015279
:10372800DA60220591D5DDE71A6822F440221A6092
:103738001A6842EA87421A60DA6822F4402242EAAA
:1037480081426005DA607FF57EAFDCE71A6822F413
:1037580040321A601A6842EA07421A60DA6822F4AC
:10376800403242EA0142A505DA607FF56AAFDBE73D
:103778001A6822F440421A601A6842EA87321A60CC
:10378800DA6822F4404242EA8132E605DA607FF5DF
:1037980056AFDBE71A6822F440521A601A6842EA08
:1037A80007321A60DA6822F4405242EA0132DA60DB
:1037B80022067FF541AFDBE71A6822F440621A60FF
:1037C8001A6842EA87221A60DA6822F4406242EAFA
:1037D80081226006DA607FF52CAFDBE71A6822F4F5
:1037E80040721A601A6842EA07221A60DA6822F4FC
:1037F800407242EA0122A506DA607FF517AFDBE7DF
:103808001A6822F0C0021A601A6842EA87121A601F
:10381800DA6822F0C00242EA8112E606DA607FF531
:1038280002AFDBE71A6822F030021A601A6842EA2F
:1038380007121A60DA6822F0300242EA0112DA60EE
:1038480022077FF5EDAEDBE71A6822F00C021A605A
:103858001A6842EA87021A60DA6822F00C0242EA21
:1038680081026007DA607FF5D8AEDBE7B85C030851
:103878001A6822F003021A601A683A431A60DA6872
:1038880022F003020A43A507DA607FF5C3AEDBE73F
:10389800264A55692C435461A9E600224FF0010CD1
:1038A8004FF003090CFA02F636EA04002ED1500054
:1038B800D3F808A009FA00F5ED430AEA050AC3F8A7
:1038C80008A0D3F808B00EFA00FA4AEA0B0AC3F8BF
:1038D80008A0B3F804A02AEA06069E80B3F804A05C
:1038E80008FA02F646EA0A06B6B29E801E682E401C
:1038F8001E60D3F800A007FA00F646EA0A061E6022
:10390800DE6801FA00F035402843D8600132102AF9
:10391800C8D1BDE8F08F054AD5692C43D46166E665
:10392800024A95692C43946161E600BF0010024089
:103938002DE9F04F4A484B4B4B4C4FF090414FF01C
:10394800010A4FF002094FF004084FF0080E4FF03B
:10395800100C20274026802530F8022B12F0010F8A
:1039680003D01960A3F804A0083312F0020F03D0A3
:103978001960A3F80490083312F0040F03D01960FB
:10398800A3F80480083312F0080F03D01960A3F8D5
:1039980004E0083312F0100F03D01960A3F804C034
:1039A800083312F0200F02D019609F80083312F0FC
:1039B800400F02D019609E80083312F0800F02D0A9
:1039C80019609D80083312F4807F05D04FF4807B06
:1039D8001960A3F804B0083312F4007F05D04FF43F
:1039E800007B1960A3F804B0083312F4806F05D087
:1039F8004FF4806B1960A3F804B0083312F4006F19
:103A080005D04FF4006B1960A3F804B0083312F422
:103A1800805F05D04FF4805B1960A3F804B00833C9
:103A280012F4005F05D04FF4005B1960A3F804B0EE
:103A3800083312F4804F05D04FF4804B1960A3F877
:103A480004B00833D20B04D04FF4004219609A80B6
:103A5800083301F58061A1427FF47EAFBDE8F08FA5
:103A6800D05D0308486900200018004800B9704775
:103A7800036803F138422DE9F04F920AB24DAA5C6F
:103A880002F01F0552090124022A04FA05F400F085
:103A98005F81032A00F05381012A00F00D8101F0B3
:103AA80003077A1E012AC1F3810EC1F30018848826
:103AB800C1F3411140F20581E6070BD51A6822F0DF
:103AC80003021A601A683A431A60DA6822F003029D
:103AD8000A43DA60A5070DD51A6822F00C021A60AD
:103AE8001A6842EA87021A60DA6822F00C0242EA8F
:103AF8008102DA6060070DD51A6822F030021A6078
:103B08001A6842EA07121A60DA6822F0300242EABA
:103B18000112DA6022070DD51A6822F0C0021A6075
:103B28001A6842EA87121A60DA6822F0C00242EA8A
:103B38008112DA60E6060DD51A6822F440721A601E
:103B48001A6842EA07221A60DA6822F4407242EAE6
:103B58000122DA60A5060DD51A6822F440621A60BF
:103B68001A6842EA87221A60DA6822F4406242EA56
:103B78008122DA6060060DD51A6822F440521A6074
:103B88001A6842EA07321A60DA6822F4405242EAB6
:103B98000132DA6022060DD51A6822F440421A6012
:103BA8001A6842EA87321A60DA6822F4404242EA26
:103BB8008132DA60E6050DD51A6822F440321A60BF
:103BC8001A6842EA07421A60DA6822F4403242EA86
:103BD8000142DA60A5050DD51A6822F440221A6060
:103BE8001A6842EA87421A60DA6822F4402242EAF6
:103BF8008142DA6060050DD51A6822F440121A6015
:103C08001A6842EA07521A60DA6822F4401242EA55
:103C18000152DA6022050DD51A6822F440021A60B2
:103C28001A6842EA87521A60DA6822F4400242EAC5
:103C38008152DA60E6040DD51A6822F040721A60E3
:103C48001A6842EA07621A60DA6822F0407242EAA9
:103C58000162DA60A5040DD51A6822F040621A6084
:103C68001A6842EA87621A60DA6822F0406242EA19
:103C78008162DA6060040DD51A6822F040521A6039
:103C88001A6842EA07721A60DA6822F0405242EA79
:103C98000172DA6022040DD51A6822F040421A60D7
:103CA8001A6842EA87771F60DA6822F0404242EADF
:103CB8008171D960BDE8F08F244A55692C4354615D
:103CC800EDE600224FF0010C4FF003090CFA02F662
:103CD80036EA04002ED15000D3F808A009FA00F5FE
:103CE800ED430AEA050AC3F808A0D3F808B00EFAAB
:103CF80000FA4AEA0B0AC3F808A0B3F804A02AEAB3
:103D080006069E80B3F804A008FA02F646EA0A06F8
:103D1800B6B29E801E682E401E60D3F800A007FA37
:103D280000F646EA0A061E60DE6801FA00F0354031
:103D38002843D8600132102AC8D1BDE8F08F034A61
:103D4800D5692C43D461AAE6B85C03080010024088
:103D5800024A95692C439461A1E600BF0010024015
:103D680010B1036882881A85704700BF10B10368D4
:103D780082889A61704700BF18B1838811B10268C0
:103D8800936170471B04FAE710B40A4B0A4A1C787F
:103D980001238340234052F8200029B9B3FA83F164
:103DA80049095DF8044BE7E7191C18BF01215DF8C4
:103DB800044BE1E70C5C0020105C002008B50121F1
:103DC8000220FFF7E1FF0C4B1B7803F00503052BDE
:103DD8000ED000210120FFF7D7FF00210846FFF78A
:103DE800D3FF3220FFF704FA0220FFF7DBFBF8E7E6
:103DF80023F057FEEDE700BF803B00200E4B1B88E9
:103E080001463BB90D4B0E4A1B7810680BB981F07F
:103E18000101B1E70B4B5A691AB11A6810B9106061
:103E28005874704708480949008891FBF0F101204F
:103E380011605874704700BF1C5C00201E5C002095
:103E4800205C0020245C00203C5C002020A10700AE
:103E580030B102688388128A1A4214BF01200020F8
:103E6800704700BF2DE9F0410C4E356873691D405D
:103E780011D0DFF82C800127B5FA85F4C4F11F04AE
:103E880008EB840307FA04F4D3F80C010368984795
:103E9800A5437461F0D1BDE8F08100BF0004014082
:103EA800641C00202DE9F0410C4E356873691D40F3
:103EB80011D0DFF82C800127B5FA85F4C4F11F046E
:103EC80008EB840307FA04F4D3F80C010368984755
:103ED800A5437461F0D1BDE8F08100BF0004014042
:103EE800641C00202DE9F0410C4E356873691D40B3
:103EF80011D0DFF82C800127B5FA85F4C4F11F042E
:103F080008EB840307FA04F4D3F80C010368984714
:103F1800A5437461F0D1BDE8F08100BF0004014001
:103F2800641C00202DE9F0410C4E356873691D4072
:103F380011D0DFF82C800127B5FA85F4C4F11F04ED
:103F480008EB840307FA04F4D3F80C0103689847D4
:103F5800A5437461F0D1BDE8F08100BF00040140C1
:103F6800641C00202DE9F0410C4E356873691D4032
:103F780011D0DFF82C800127B5FA85F4C4F11F04AD
:103F880008EB840307FA04F4D3F80C010368984794
:103F9800A5437461F0D1BDE8F08100BF0004014081
:103FA800641C00202DE9F0410C4E356873691D40F2
:103FB80011D0DFF82C800127B5FA85F4C4F11F046D
:103FC80008EB840307FA04F4D3F80C010368984754
:103FD800A5437461F0D1BDE8F08100BF0004014041
:103FE800641C00202DE9F0410C4E356873691D40B2
:103FF80011D0DFF82C800127B5FA85F4C4F11F042D
:1040080008EB840307FA04F4D3F80C010368984713
:10401800A5437461F0D1BDE8F08100BF0004014000
:10402800641C0020094A10B59369094C43F0010348
:10403800936104F58670402200212FF09BF94FF020
:10404800FF33C4F84C31C4F84F3110BD00100240A2
:10405800641C002010B58B68016004469847002254
:10406800FF230121A2736373217310BD03681B6AC8
:10407800184700BF70B44E1C0568C2728672AC69DE
:10408800A44670BC604700BF2DE9F04104461846BD
:104098000D4616461F462EF0B5FA2844A072206831
:1040A800E672294645693B4632462046AC46BDE89D
:1040B800F0416047036810B504461B6898472368B9
:1040C80020469B689847A37B0133A37310BD00BFAC
:1040D80010B5036804469B689847FF230122637361
:1040E800227310BD38B50D46FEF718F8044640B1E6
:1040F80036238371C57129F09FFE2046BDE83840FC
:1041080034E638BD38B50D46FEF708F8044648B120
:1041180035238371C5712021FFF7A8FC2046BDE82F
:10412800384023E638BD00BF0B4B984211D0A3F5A9
:104138007843984202D04FF0FF3070470122074B76
:1041480003EB02135A89013292B25A81588980B21C
:1041580070470022F3E700BF003001403C680020B0
:10416800F8B584894FF6FF764FF47A742BB311B300
:104178000F78013101E0B44217D00589013CAD0741
:10418800A4B2F8D507734FF47A7402E0BCB2B44213
:104198000BD00589ED0704F1FF37F7D5057BEDB2A4
:1041A8000AB115700132013BE0E7FFF7BDFF0030AF
:1041B80018BF0120F8BDFF27DFE70120F8BD00BFC9
:1041C80008B540F2E93300E09BB10289013B12F0E7
:1041D800020F9BB2F8D0017340F2E93300E043B11B
:1041E8000289013B12F0010F9BB2F8D0007BC0B2EC
:1041F80008BDFFF799FFC0B208BD00BFF8B5054676
:10420800806816461F4610B1036882881A8541F0F7
:104218008001686840F2E93401E0002C44D0038949
:10422800013C13F0020FA4B2F7D0017340F2E93158
:1042380001E0002938D00389013913F0010F89B250
:10424800F7D0037B68684FF0000C83894FF47A71CC
:104258004FF6FF724FF0FF0E03E0013989B2914229
:104268001FD003899C07F8D580F80CE04FF47A71C9
:1042780002E0A1B2914214D00389DB0701F1FF34B7
:10428800F7D5037BDBB20EB1337001360CF1010CAC
:10429800BC45E6D1AB6813B11A689B8893610120CD
:1042A800F8BDFFF741FFF5E7FFF73EFFCAE700BF9C
:1042B80038B583680446154613B11A689B88138578
:1042C800606840F2E93300E07BB30289013B12F0F9
:1042D800020F9BB2F8D0017340F2E93300E023B338
:1042E8000289013B12F0010F9BB2F8D0037B606892
:1042F80040F2E93300E0DBB10189013B11F0020F24
:104308009BB2F8D0057340F2E93300E083B102892B
:10431800013B12F0010F9BB2F8D0037BA36813B1E5
:104328001A689B889361012038BDFFF7FDFEDEE720
:10433800FFF7FAFEF2E700BFF0B5836983B00646DF
:1043480013B11A689B8813857069DFF8A0C0838948
:10435800C3244FF47A7306276D464FF6FF710CF1AC
:10436800010C03E0013B9BB28B421CD002899207EF
:10437800F8D504734FF47A7302E0A3B28B4212D0DB
:104388000289D20703F1FF34F7D5027BD2B20DB10F
:104398002A7001354FB1013FFF24BCF1000FE5D071
:1043A8009CF80040DBE7FFF7BFFEB36913B11A685A
:1043B8009B8893619DF805009DF801509DF80210B7
:1043C8009DF803409DF804209DF8063041EA052138
:1043D80043EA002342EA04220120A6F85010A6F876
:1043E8005220A6F8543003B0F0BD00BFC83403080B
:1043F800427A4AB110B5044604F10A01D0E9003006
:1044080098470023637210BD704700BF437A5A1C57
:104418000344D2B242729972037A93420AD84AB1DB
:1044280010B5044604F10A01D0E90030984700238A
:10443800637210BD704700BFA8B10D4B012210B4C4
:1044480002FA01F103F1750402E00333A3420BD031
:1044580013F8012C8242F8D11A780A42F5D00120CB
:104468005DF8044B7047704700205DF8044B7047B7
:10447800D134030830B40A4D002305F1780401E073
:10448800272B0AD003EB43020133A15C8142F7D109
:104498002A4430BC92F87A007047002030BC70473C
:1044A80058340308024A136823EA00001060704772
:1044B8005048002038B5494B1B68B3F5FA7F7ED8C1
:1044C800474B9A89D989D878914224BF00229A818A
:1044D800598A1A8A914224BF00221A8201280DD9CA
:1044E800404A414D92F85C10012400220A292C70A0
:1044F8009C709A7134D1DFED3D7A15E09A7922B13A
:1045080099780429B8BF04219970364991F85C104C
:104518000A2959D00C2925D1DFED357A9FED357A56
:10452800002A18BFF0EE477A334CA278062A97BFC4
:104538003249DFED306A01EB8201D1ED3C6A217925
:10454800B9B1013A032A0AD8B7EE000A80EE260A62
:104558002EF09CFE2388984228BF1846208038BD3C
:104568000C2903D0012835D90A2930D0DFED247A67
:10457800D4E79B781C4907EE103A0A78B8EEC77A58
:1045880067EE277A07EE102AB8EEC77A27EE277A61
:10459800F4EEC76AF1EE10FAE1DD86EEA77AFDEED9
:1045A800C77A17EE903A102BA8BF1023012BB8BF7B
:1045B8000123DBB29A4238BF1A460A7038BD4FF061
:1045C8000050FFF76FFF7BE7DFED0E7AA6E7DFED20
:1045D800077AA3E7DFED0C7AA0E700BF986A00200E
:1045E800786A0020A86A0020784900200F506E3AA7
:1045F8000AD7A3396F120338B4730020583403085C
:104608006F12833A5304E9386F120339F8B5AD498C
:104618000B78A3F11702022A0FD9AB4A12F833001C
:10462800002840F01581D800024452782AB1A74AE0
:1046380012F83330002B00F0E4810024A44EA54F7B
:104648002546315B4B0803F077334FEA910C0CF0A9
:10465800333CCB1ACA08A3EB0C0302F011329B1AA5
:1046680003EB231303F00F33A7FB03C2D209C2EBFA
:1046780002229A1A11F001031CBF0135EDB2012A7A
:1046880006EB040004F108040BDD022A40F0DC808C
:1046980013B111F42F7F04D108F0D4FE002800F0E4
:1046A800D380302CCDD1013D022D00F2CD80802069
:1046B800FFF7F8FE884A5378052B58D8874903EB4B
:1046C800C30301EB430113788548864C0160022B34
:1046D80049D803EB430104EB411103EB430304EB1B
:1046E8004313814D9A88D888296090427F4924BF16
:1046F80000229A808B78042B00F0B38033B90B88A2
:10470800B3F5F07F84BF4FF4F0730B80784DFFF75B
:10471800D1FE2B68774A1A40002A00F0CA80DA07CF
:1047280000F1CA805F0400F1B1801E0700F1B58076
:10473800980400F1B98019046F4A7DD50023D3731A
:1047480082F82330137EB3B1537E032B00F03781F8
:10475800012B1FD0022B24D000232383A4F8783008
:10476800A4F8D8303BE1002321461370B5E70023B5
:104778005A495370A7E7A3816382A4F86C30A4F860
:104788007230A4F8CC30A4F8D2302383A4F878305F
:10479800A4F8D830002384F84F3084F8AF3084F878
:1047A8000F31564BDA79022A08BF01224FF00A006E
:1047B80008BFDA7123F038FE002840F0AD804FF4CE
:1047C800806026F0D1F9002800F01E814FF40070B7
:1047D800FFF768FE4FF40050FFF764FE4FF4804087
:1047E800FFF760FE4FF40030FFF75CFE4FF4001057
:1047F800FFF758FE424C4FF00070FFF753FE4FF0A2
:104808008060FFF74FFEA388002B38D13D4A13681C
:10481800DB0DDB050BB100231360936823F40073F1
:1048280023F002030BB1002393601379013B042B9F
:1048380001D901231371F8BDD17B002900F0D8807C
:10484800002382F823307DE7214825F03BFC2EE742
:10485800D80014186468002C7FF4E6AE17240C7096
:10486800E2E64FF48050FFF71DFE8B8AB3F57A7F9E
:1048780037BF4FF47A728B788B788A823EE720783C
:10488800FEF758F90028C1D1A080BFE71E48FFF7FE
:1048980009FE2B681E077FF54BAF1C48FFF702FE89
:1048A8002B6898047FF547AF1948FFF7FBFD2B6885
:1048B80041E743F001032B601648FFF7F3FD2B682F
:1048C80030E700BF304B0020385F0308C43F0308BF
:1048D800F07F002081808080E882002086410020CF
:1048E800E42600203C400020E0260020B47300208D
:1048F8005048002009600002247700201858002042
:104908009A3B002040580020092000020160000264
:1049180009400002086000023E4F002207F1060E1F
:104928001146944601EB4100430017F810000A288D
:1049380007EB030540D05B1B28464E1CEABB7344BB
:10494800142E1D443FF43BAF10F8062F0A2A08D056
:104958000136142E1D443FF432AF10F8062F0A2AF0
:10496800F6D101229319132B15D803EB430007EB5B
:10497800400117F810000A2808BF013305D012E0DB
:1049880011F8064F0A2C0ED10346132B02F101022F
:1049980003F10100F4D9C5F800C0A5F804C0711CE2
:1049A8001429BFD10BE703EB430307EB4303196853
:1049B80029609B88AB80F2E7BAB10E46D2E70023A4
:1049C800A3816382A4F86C30A4F87230A4F8CC30C8
:1049D800A4F8D2302383A4F87830A4F8D830537ED2
:1049E800023B022B3FF6D6AEDBE60E460122B9E7C4
:1049F80042F201010B423FF4A5AE002382F82330B6
:104A0800A0E618230B7018E64FF00060FFF74AFD88
:104A1800DCE600BF884C00202DE9F84F1BF0F2F9C6
:104A28002B4B2C4A934250D22B4F03F114069B4632
:104A38004FF00108294C258862197DB1BA420DD280
:104A4800052D0BD936F8143C6188C3F30B03994242
:104A58000AD0144625886219002DEFD156F8101C8B
:104A68005846FCF745F80FE0637913F0030AF0D1D4
:104A780056F8101C94F804905846FCF739F836F8A4
:104A8800141CB9EB113F11D04FF00008114B0BF17A
:104A9800140B9B4506F11406CCD3FFF7B7FDFCF7C2
:104AA80051FD1BF045F94046BDE8F88F36F8123C39
:104AB80056F8100CAA1FC3F30B039A4204F106011F
:104AC800A8BF1A462EF064FBE0E74FF00108E4E7C0
:104AD800249D0308C0A103080000040802F003088D
:104AE80070B502221349144C144E4FF6FF70FBF7B1
:104AF800CFFD22884AB1A518B54218D2052A16D981
:104B08002146FBF7C5FD2C46F3E721460222FBF7B9
:104B1800BFFD0222A118FBF7BBFD094BE41A094BA4
:104B28001C8041F60F53C31A5842584170BD0020EB
:104B3800FCE700BF00F0030802F0030800000408C7
:104B4800FAEF0308805100202DE9F04F8DB0FFF7F0
:104B58005DFDDFF87891584FDFF874811BF052F94A
:104B6800564A574BB2F80C21ADF80620A3EB0903BF
:104B780000934FF0030A0026CDE90866CDE90A66DE
:104B8800009BCDF818900793D8F810301B0606D56F
:104B98004C4BC8F8043003F18833C8F804300123BB
:104BA8008DF82C303423C8F80C300222BDF80630BA
:104BB800ADF8083002A906A8FCF74EFB022202A9AC
:104BC8004FF6FF70FBF764FD3F4BBB42834629D28B
:104BD8001C46658823888DF81560C5F30B05C3F35B
:104BE8000B00A91D1B0B0622ADF81010ADF8120022
:104BF80004A906A88DF81430FCF72EFB58460622A7
:104C080004A9FBF745FD616883462A4606A8FCF718
:104C180023FB616858462A46FBF73AFD1434BC4228
:104C28008346D6D3022203A906A8ADF80C60FCF788
:104C380013FB022203A95846FBF72AFD40BAC343D7
:104C4800022204A906A8ADF81030FCF705FB099864
:104C580020BB0A989DF82C305BB990B1BAF1010AD3
:104C68008AD10520FDF780FF1BF062F80DB0BDE882
:104C7800F08FD8F8103043F08003C8F810300028BF
:104C8800ECD199F80030AB2BEBD199F80130BE2B61
:104C9800E7D1FFF725FF0028E6D1E2E708ABC0F12E
:104CA8000402002118442EF065FB089906A8FCF7B9
:104CB80079FACDE90960CDE7C0A1030858340308A3
:104CC8000000040823016745249D030800F0030839
:104CD8000020024008B5FFF737FFFFF79DFE0120CF
:104CE800BDE8084026F0D8B82DE9F047D54C2DEDA1
:104CF800028B636820469847002800F0D080D24B8A
:104D08001B780122042B84F8342000F0CC80B4F9FD
:104D1800163006EE903AB4F9183007EE103AB4F9A6
:104D28001A3007EE903AF8EEE66AB8EEC77AF8EE6F
:104D3800E77AC4ED0A6A84ED0B7AC4ED0C7AC34BAA
:104D48001B88002B60D0C24B94ED0A2AD4ED0B2AA5
:104D580094ED0C3A93ED008AD3ED054A93ED090AD8
:104D6800D3ED0E3AD3ED120A93ED174A93ED011ADB
:104D780093ED065AD3ED0A1A93ED0F6AD3ED137A21
:104D880093ED187AD3ED045AD3ED0D6AE8EE024A92
:104D9800E0EE223AA3EE204AA1EE025AA1EEA26A60
:104DA800A3EE277A93ED038AD3ED167A93ED020AE0
:104DB800D3ED0C0A93ED0B1AD3ED151AC4ED0A4A7C
:104DC80065EEE45AA8EE645A66EEE36AD3ED144A37
:104DD80083ED055A67EEC47AE0EE025AA0EEE36A64
:104DE800E1EE226AA4EE617AE3EE247AC3ED065A74
:104DF800C4ED0B3A83ED0E6AC3ED0F6A83ED177AA3
:104E0800C3ED187A84ED0C4A924EA17F9248934DD7
:104E18001AF0CEF93288D5F80031002A40F098808F
:104E28008F4A126851075BD4B3F9002094ED0B6ADE
:104E380094ED0C7A94ED0A5A8A4905EE902AB3F952
:104E48000220B3F9043006EE902A07EE903AF8EE05
:104E5800E55A854B0A68D3ED003A93ED014AD3ED44
:104E6800024AF8EEE66AF8EEE77A75EE655A76EEEB
:104E7800666A77EE677AC4ED0A5A34EE266A73EEEC
:104E8800A55A34EEA77A0132C3ED005AC4ED0B6A75
:104E980083ED016AC4ED0C7A83ED027A0A60BDECF9
:104EA800028BBDE8F087B4F91600B4F91810B4F90C
:104EB8001A206E4B07EE900AF8EEE76A07EE901A92
:104EC800B8EEE77A07EE902AF8EEE77AC4ED0A6AB8
:104ED800188059809A8084ED0B7AC4ED0C7A2EE7FD
:104EE800634E3288322A00F0CD80002A40F01981C2
:104EF800604E3278002A97D05F4FD5F87421D5F8E4
:104F08006C11D5F8700187FB02ECD217C2EB2C129A
:104F1800B4F814C0A2EB0C029A8087FB01C287FB8D
:104F280000C7C017C0EB2710C917544F5880C1EBF2
:104F38002211002232701980BA81FA81FFF704FE2B
:104F4800FFF76AFD012025F0A7FFD5F800316BE7D0
:104F5800B2F5C87F18BFD5ED557AD4ED0A6A0CBFF3
:104F68009FED477AB8EEE77ADFED457A0022C4ED87
:104F78000A7A1A803288378837EE267AB2F5C87FDF
:104F880018BFD5ED567ABDEEC77A18BFF8EEE77AA6
:104F980017EE101A85ED557A94ED0B7A77EE877A2D
:104FA8000020FDEEE77A4FF0000CB7F5C87FE0620D
:104FB80017EE902AA3F802C0C5ED567A00F0A78034
:104FC800D5ED577A94ED0C7A2063F8EEE77A012F45
:104FD80077EE877AA3F804C0FDEEE77A17EE900A19
:104FE800C5ED577A2AD1DFF890E0B4F81480C830BC
:104FF8008EFB00A9C831C832C017C0EBE9108EFB80
:1050080001A98EFB02AED217C2EBEE12C917DFF868
:105018006CE05A80C1EBE911A0EB08009880198078
:10502800AEF80CC0AEF80EC0FFF78EFDFFF7F4FC2B
:10503800384625F031FF3788D5F80031013F3780F1
:10504800EEE600BFA4260020D81F00200C45002053
:1050580010450020742F0020CC260020641C00205E
:10506800307100202C51002030510020DC1F00201E
:10507800703500206E3500201F85EB51FC44002060
:1050880000000000514A1968D268C5F868219FEDF0
:10509800507AB3F90420C5F86011A5F86421DFED52
:1050A8004C7AD4ED0A6AC4ED0A7A00221A80328852
:1050B80037EE267A322A18BFD5ED5C7A3288BDEEF3
:1050C800C77A18BFF8EEE77A85ED5B7A94ED0B7A2C
:1050D80077EE877A0020FDEEE77A0021322AE06237
:1050E800C5ED5C7A598042D0D5ED5D7A94ED0C7AA5
:1050F8002063F8EEE77A012A77EE877A9980FDEE49
:10510800E77AC5ED5D7A11D0013A3280F0E6D4ED48
:105118000C7A2063FDEEE77AA3F804C0C5ED577A50
:105128008CE7D5ED5B7AB8EEE77AB8E729482A4FDD
:105138000068DFF8B8C03A7082038CF800103CD4DD
:1051480026480021024617780B2F02F10C0217D0CF
:1051580001311829F7D1D5F860211A601B49B5F932
:105168006471D5F868019F803288C860CCE7D4EDB7
:105178000C7A2063FDEEE77A9980C5ED5D7AC3E786
:10518800174FD7F800E04A00BEF1000F09D002EB34
:10519800010C00EB8C0C9EF801E09CF801C0F44572
:1051A800D9D20A44DFF848C00E4900EB8200002239
:1051B8003860ACF800200A60CDE70B4A1278032A61
:1051C800BED125F063FDD5F80031C4E7FC440020CA
:1051D80000000000405800206D35002000450308FD
:1051E800802F0020882F0020F82000207235002012
:1051F800842F002030B402681146531C036011F854
:10520800024B0160D31C517803609378151D05602B
:105218001B0443EA0123D078234343EA006030BCEF
:10522800704700BF0368591C1A46016012F8021B38
:105238000260587841EA0020704700BF03685A1C92
:1052480002601878704700BF38B5044600681546F4
:105258002DF09EFF22682A44226038BD036810B4EE
:105268000A0A5C1C04601A7003685A1C02601970F0
:105278005DF8044B704700BF03685A1C026010B405
:10528800197003680A0A5C1C04601A7003680A0C27
:105298005C1C04601A700368090E5A1C02601970BD
:1052A8005DF8044B704700BF03685A1C0260197010
:1052B8000368090A5A1C02601970704707EE901AB1
:1052C800F8EE677A9FED837A27EE800A20EE070AC8
:1052D800FDEEC07A17EE903A2033402B00F2818021
:1052E800DFED7D7AB4EEE70AF1EE10FA40F3E680DE
:1052F800B0EE407A9FED796ADFED796A01E0B0EEB1
:10530800677AB4EEE67AF1EE10FA77EE467AF6DCD2
:105318009FED747AF4EEC77AF1EE10FA40F1D1807D
:105328009FED6E6ADFED706A01E0F0EE477AF4EE09
:10533800E67AF1EE10FA37EE867AF6D4DFED6B7A7C
:10534800B4EEE77AF1EE10FA40F3A780DFED627A67
:1053580037EEC77A27EE076ADFED655ADFED657A23
:10536800DFED656A9FED655AE6EE257A67EE065A27
:10537800E6EE276AF7EE007AA5EEA67AF0EE675A0F
:10538800E7EE055AE7EE457A87EEA55ADFED577A3C
:1053980030EE277AFDEEC76A16EE903A2033402B9E
:1053A80024D99FED577AF6EE006AB7EE006AF7EE59
:1053B800004AC4EEA57A0023836143610362C36196
:1053C80080ED045A67EEA66A27EE866A27EE877A8A
:1053D800C0ED006AC0ED026A80ED016A80ED037AD3
:1053E8007047B7EE005AF0EE455ACFE7B4EEE70A39
:1053F800F1EE10FA6BDD9FED396ADFED396A01E0F5
:10540800B0EE677AB4EEE67AF1EE10FA77EE467A05
:10541800F6DC9FED347AF4EEC77AF1EE10FA53D544
:105428009FED2E6ADFED306A01E0F0EE477AF4EE88
:10543800E67AF1EE10FA37EE867AF6D4DFED2B7ABB
:10544800B4EEE77AF1EE10FA33DCDFED2E7AB4EE43
:10545800E77AF1EE10FA44BFDFED227A37EEC77A29
:1054680027EE076ADFED224ADFED226ADFED227AB6
:10547800E6EE246A67EE064AE6EE267AB7EE006A9A
:10548800A4EEA77AF6EE006A36EE476AF8EE007ADE
:1054980027EE277A66EE266A89E7DFED1A7AB4EEF8
:1054A800E77AF1EE10FA44BFDFED0E7A37EEC77AED
:1054B80050E7DFED097A37EEC77AD1E7F0EE407AA8
:1054C80026E7B0EE677A39E7B0EE677AB6E7F0EE2E
:1054D800477A9EE727D4D236DB0F4940DB0FC94015
:1054E800E4CB1641DB0F49C0E4CB16C1DB0FC93F43
:1054F80092E741B99730083C15A82ABEF304353F16
:1055080000000000DB0FC9BFDFED2B7AB4EEE70A1D
:10551800F1EE10FA4ADDDFED296A9FED297A01E004
:10552800B0EE670AB4EEC70AF1EE10FA70EE667ACA
:10553800F6DC9FED247AF4EEC77AF1EE10FA38D54E
:10554800DFED1E6A9FED207A01E0F0EE407AF4EE7E
:10555800C77AF1EE10FA37EEA60AF6D4DFED1B7A19
:10556800B4EEE70AF1EE10FA14DDDFED137A37EE48
:10557800C00A60EE006A9FED166A9FED167ADFEDAD
:10558800167AA6EE867A20EE266AE6EE877AA6EEE8
:10559800270A7047DFED117AB4EEE70AF1EE10FA48
:1055A80044BFDFED087A37EEC00AE2E7F0EE407A52
:1055B800BFE7B0EE670AD1E7DB0F4940DB0FC94010
:1055C800E4CB1641DB0F49C0E4CB16C1DB0FC93F62
:1055D80092E741B99730083C15A82ABEDB0FC9BF2E
:1055E80002B370B48E1803E0121B14D1B14215D067
:1055F80010F8012BA2F14103192B11F8013BA3F17B
:10560800410598BF2032192D03F12004ECD9D21A94
:1056180001D1002BEAD1104670BC70470022104619
:1056280070BC70471046704770B5044608460D4672
:105638002CF0E8FF064602E014F8013F43B1324679
:1056480029462046FFF7CCFF0028F5D1204670BD3B
:105658001C46204670BD00BF4FF0FF32FFF7C0BFA9
:10566800A0F16103192B98BF20387047A0F14103BE
:10567800192B98BF20307047202805D009380428F6
:105688008CBF00200120704701207047613819281D
:105698008CBF002001207047413819288CBF00209A
:1056A80001207047303809288CBF0020012070473E
:1056B800A0F13003092B07D920F020004138192820
:1056C8008CBF0020012070470120704738B5014683
:1056D8000B781846FFF7D0FF0A4601310028F7D1AA
:1056E8002B2B27D02D2B24D0A3F13004392B4FF0AE
:1056F8000001154DE4B20FD8092C01EB81030BD83A
:10570800A94213D810D004EB430112F8013FA3F1CA
:105718003004392BE4B2EFD978B1B1F1004F28BF8A
:105728004FF00041484238BD052CECD94FF0FF310D
:10573800EBE7012053780132D6E76FF0004088424A
:1057480028BF084638BD00BF999999190378202BBE
:10575800024600F10100F9D0092BF7D02D2B00F0FB
:10576800A4802B2B03BF5378B7EE000A0246B7EE8E
:10577800000AA3F13001C8B209289FED577A10D862
:10578800F2EE046A07EE901AF8EEE77A12F8013F93
:10579800E7EE267AA3F13001C8B20928B0EE677A9D
:1057A800F0D92E2B63D003F0DF03452B02D020EE77
:1057B800070A704710B451782D294FD02B2979D07A
:1057C800A1F13003092B02F101027AD80024002349
:1057D80003EB830301EB430312F8011FA1F130002F
:1057E8000928A3F13003F3D9B3F59A7F1A4628BFE5
:1057F8004FF49A72072B6CD9DFED386A1346F7EE2F
:10580800007A083B072B67EEA67AFAD802F007025F
:10581800DAB1F2EE046A012A67EEA67A15D0022AF6
:1058280067EEA67A11D0032A67EEA67A0DD0042A6D
:1058380067EEA67A09D0052A67EEA67A05D067EE44
:10584800A67A062A18BF67EEA67A002C3BD087EE08
:10585800277A5DF8044B20EE070A70479178A1F18A
:105868003003092B02F1020230D80124AFE7537844
:10587800A3F13001C8B2092802F1010293D8F2EE6F
:10588800046AF0EE665A07EE901AF8EEE77A12F814
:10589800013F87EEA66AA3F13001C8B2092866EE77
:1058A800A56A37EE067AEED97DE75378BFEE000A8F
:1058B80002465EE79178A1F13003092B02F102025A
:1058C80084D9F7EE007A27EE277AC2E7F7EE007A56
:1058D800BDE7F7EE007A9BE70000000020BCBE4C55
:1058E800F8B5064615460846B6FBF2F434B905FB8A
:1058F80014640C4B1B5D00F8013BF8BDB4FBF2F7D8
:105908005FB905FB1747074B05FB1464DA5D00F820
:10591800012B1B5D00F8013BF8BD3846FFF7E0FF9F
:10592800EFE700BF60620308B5EEC00ADFED677AF3
:10593800674AF1EE10FACCBF30EE270A30EE670A5C
:10594800DFED647A20EE270A2DE9F047FDEEC07AF4
:1059580088B017EE904A84EAE4760023A6EBE47652
:10596800CDE902330493A2FB06325FEAD20805466A
:1059780041D105AF58483946554BA3FB0623DB08F0
:1059880003EB8303A6EB4303002CC35C0B704FF0BF
:105998000002ACBF20232D234A7038468DF808300A
:1059A8002CF030FE0128394639D0022842D003288D
:1059B80005BF302302A802A88DF809302DF0E2FCBB
:1059C80002A82CF01FFE0338C4B2224602A92846BA
:1059D8002DF00EFD00232B5528462CF013FE2E2209
:1059E800431C02A92A542144E8182DF0E7FC284654
:1059F80008B0BDE8F087394BA3FB06235B0922D129
:105A080005AF35483946324AA2FB0832D20802EBC4
:105A18008202A8EB4202835C01F8013BACE7302329
:105A280002A88DF809308DF80A308DF80B302DF06A
:105A3800A9FCC5E7302302A88DF809308DF80A3093
:105A48002DF0A0FCBCE7264AA2FB06125FEA9219D9
:105A58000ED105AF204839461D4AA2FB03C2D20821
:105A680002EB8202A3EB4203C35C01F8013BCAE7E5
:105A78001C4AA2FB06125FEA523A0ED105AF16483D
:105A88003946134AA2FB09C2D20802EB8202A9EBEB
:105A98004202825C01F8012BDEE71348B6FBF0F006
:105AA80058B905AF39460A20BAFBF0F200FB12A23A
:105AB8000948825C01F8012BE3E705AF39460A2261
:105AC8000193FFF70DFF019B0146ECE76F12033AC4
