:020000040800F2
:1000000000200010BD2F030811F20208613A000819
:100010000FF202080DF202080BF2020800000000C5
:1000200000000000000000000000000009F20208CB
:1000300007F202080000000005F202082529000866
:100040002530030825300308253003082530030830
:100050002530030825300308493B0008893C000887
:10006000493C0008093C0008C93B000869970008A2
:100070005997000849970008399700082997000800
:10008000159700080197000825300308253003085C
:10009000D91D03082530030825300308893B0008D3
:1000A000F91900089D1E000825300308591F000893
:1000B000E11D0008251D00085D1C0008253003080F
:1000C00025300308253003082530030825300308B0
:1000D000253003085D2A0008E12900086529000889
:1000E000093B000825300308F5F102082530030814
:1000F000C51A000825300308911B000825300308A5
:10010000000000000000000000000000253003088F
:10011000253003082530030869F7010855F7010861
:10012000ED960008D9960008C5960008B19600081B
:100130009D96000825300308000000000000000024
:10014000253003082530030825300308000000008F
:10015000000000000000000000000000000000009F
:1001600000000000000000002530030825300308CF
:10017000253003080000000000000000000000001F
:08018000000000002530030817
:100188000C4B1B78DB0700D570470B4A1368002B14
:10019800FAD04FF47A7101FB03F39842F4D3074B7A
:1001A8001B781BB9064B99681B690B600023136009
:1001B800704700BFB07B0020283A00201C3A00207E
:1001C8004039002090ED057A90ED004AD0ED066A9E
:1001D800D0ED014AD0ED047A90ED035AD0ED025AE1
:1001E800A4EE007AB0EE406AB0EE470AB0EE667A46
:1001F800A4EE867A67EEC07AA5EE407AE5EE867AB6
:1002080080ED057AC0ED067A704700BF704700BFE1
:1002180070B50C4C23689BB15A68821A002A0FDB10
:100228000546002603E05A68AA1A002A08DB9968DE
:100238001E731A682160184690472368002BF2D174
:1002480070BD00BF841D0020436A8269D154436A8F
:100258000169C26B01338B4228BF002343623AB362
:1002680070B4EFF31183502282F31288C66B3268A0
:10027800D20704D5DBB283F3118870BC704771686C
:1002880069B9D0E90942944218D085691544F560E6
:1002980018D9A21A72608462002280F85820326845
:1002A80042F00102DBB2326083F3118870BC704700
:1002B800426D136843F0800313607047012280F891
:1002C8005820D7E70469A21A72608162E4E700BF88
:1002D800034610B4846BD968406954B19A6C8C1A7F
:1002E800013A005D5DF8044B08BF0A46C0B29A6443
:1002F80070471A6A805C01328A4228BF2246C0B21F
:100308001A625DF8044B7047C36B13B190F858003C
:100318007047D0E90903181AB0FA80F0400970470D
:10032800D0E909120369914238BFC9188A1AC16B0A
:10033800013B19B149680A449A4201D2981A704798
:1003480000207047836B43B1826C5B689A4291BF0F
:10035800981AC0689B1AC0187047D0E907239A42B8
:100368002FBFD01AC0688018C01A70470A4B30B522
:1003780003F1140493F900205D78072AC8BF143AE2
:10038800811804330D7313F8025C855413F8012C9B
:100398000A769C42EED130BD0835030803682DE982
:1003A800F0415D6A1DB12B46BDE8F0411847002AAF
:1003B800174611DD04460E460F4400E023689B688B
:1003C800204698470028F9D0236816F8011B1B68B7
:1003D80020469847BE42F1D1BDE8F08103681B6909
:1003E800184700BF00232322027043708370C37034
:1003F800704700BF10EE103AC3F3160242F07E5267
:1004080007EE102ADFED167ADFED164A9FED165A31
:10041800DFED165A9FED166ADFED163ADFED166A24
:100428009FED164AE7EE274ADB1507EE903AA4EE51
:10043800875AF8EEE77AE5EE075A67EEA37AA5EE53
:10044800876AB5EEC00AE6EE077AF1EE10FAD4BF75
:10045800B0EE440AB0EE660A37EE800A704700BF75
:10046800DACDFE3CB9D593BE5CB8903FAA841DC0D6
:1004780022E061401872313F07F1B3C2000080FFEB
:10048800DFED1D3ADFED1D7A9FED1D7A9FED1D4AC8
:10049800DFED1D4A9FED1D5ADFED1D5A9FED1D6AC8
:1004A800DFED1D6AE0EE237AF4EEC77AF1EE10FA7A
:1004B80088BFF0EE477AF4EEC47AF1EE10FAB8BFCE
:1004C800F0EE447AFDEEE77A17EE903AC3F316029F
:1004D80042F07E5207EE102AA7EE245A03F0FF439B
:1004E80000EE103AE5EE075AA5EE876AE6EE076ACF
:1004F80026EE800A704700BF3BAA384B00007E4EAC
:100508000000FF4E00000000ED185E3C81900FBB1C
:10051800AF9D2A3EB2D19F3EE886023FD0ED057AD4
:1005280090ED013AD0ED003AD0ED064A90ED024A3E
:1005380090ED077A90ED035A90ED086AD0ED045AD1
:10054800C0ED067AF0EE406A27EE830AC0ED056A30
:10055800A3EEA60A80ED087AA4EE240AA5EE470ABF
:10056800A5EEC60A80ED070A704700BFD0ED007AF5
:1005780090ED017A30EE670AE7EE007AB0EE670A8E
:10058800C0ED007A704700BF704700BF0028F0B484
:1005980003DA2D230B7040420131092804464FF03D
:1005A800010307DD03EB83035B00B0FBF3F2092AC9
:1005B800F8D883B10F48A0FB0326B4FBF3F2092A4D
:1005C80002F1570C02F1300709DD03FB1244F3086E
:1005D80001F801CBEFD100230B70F0BC704703FB8F
:1005E8001244F30801F8017BE5D100230B70F0BC3D
:1005F800704700BFCDCCCCCC884270B44FF001041A
:1006080042D301FB04F4B0FBF4F58D42F9D2ECB10E
:1006180042BB092D04FB150005F1570605F1300210
:100628000EDDB4FBF1F403F8016B7CB1B0FBF4F51B
:10063800092D04FB150005F1570605F13002F0DC21
:10064800B4FBF1F403F8012B002CEFD100221A704F
:1006580070BC704703F8016BB4FBF1F4002CF5D0C3
:10066800B0FBF4F5092D04FB150005F1370605F17B
:100678003002EFDCB4FBF1F403F8012B002CEFD1CE
:1006880000221A7070BC70470546002AEAD1C0E7FC
:100698000A44914215D030B40139551E41F2210265
:1006A80011F8014F082380EA042004044CBF82EAB1
:1006B80040004000013B80B2F7D18D42F0D130BC00
:1006C8007047704703685A1C02601970704700BF72
:1006D8002DE9F047089C2578002B804689460CBFF9
:1006E8004FF0200A4FF0300A661C25B3002A26DD99
:1006F800334601E0024698B113F8011B501E002949
:10070800F8D1971E60B13D46013D51464046C84765
:100718006B1C002BF8DC257827EAE770013045B11F
:10072800041B29464046C847301916F8015B002DBE
:10073800F7D1BDE8F087002A03DC2846F9E7002056
:10074800EEE7571EDFE700BF034600F11001FF2266
:100758001A705A7002339942FAD10270427082704C
:10076800C270027142717047012321210022417039
:10077800C27003708370704730B415221623172592
:100788002D242E21027043702F22FF23857044717F
:100798008171C271C37003710372437230BC7047B8
:1007A80006224FF47A7302704360704730B4022314
:1007B8000025012414213D2205708470C1708271C6
:1007C8004370C37130BC70472DE9F04FDFF8DCC1CE
:1007D800754CDCF804502288B4F90AA0C2EB251342
:1007E8005200C2EBE502B4F902505B436A43B4F924
:1007F80004501B135D43AD1305EBE225B5F5FA3242
:100808004FEAE57B85B04BF1FF33CDE90023DDE905
:1008180000325343009AA561A2FB0289CDE9020187
:10082800B4F908200199009809EB43095143D317FB
:1008380000FB0311A2FB00230B444FEAEA7B0AFBEF
:1008480009F11F0308FB0B13AAFB080119444FEA1F
:10085800102A4AEA016A16034FEA212B47EA12577F
:100868001AEB0602E6884BEB070312F1000A43F580
:10087800004BAAFB060106FB0B114A10CB1752EAE4
:10088800030100F08E80B4F91060009806FB09F1AE
:10089800F71708FB0711A6FB08673944B4F90E805F
:1008A8008B4601994FEAE87908FB01F100FB091131
:1008B800A8FB00898944DCF808104FEA4947C1F5CC
:1008C800801C47EAD837B2464FEA4846B4F90C804C
:1008D8001AEB060A66464BEB070BF7174FEAC806F2
:1008E800019600260096F907DDE900674FEACC700B
:1008F80016EB0A0647EB0B0741EA5C01801B61EB2C
:10090800070140F6354C8946A0FB0C010CFB091188
:1009180032F084F9B4F91620B4F914A04E13470B39
:1009280047EAC14702FB06FCD31707FB03CCA2FB2F
:1009380007236344564307FB0366A2FB072333449C
:10094800560E46EAC31632184FEA636747EB0103AF
:1009580080460AFB01F14FEAEA7B08FB0B17AAFB6A
:1009680008013944C60C46EA413612EB06084FEA3C
:10097800E147B4F9122043EB07094FEA182141EA8D
:10098800096113010B44029A0AB11B0A1360039B05
:1009980023B105EB850580352D121D6005B0BDE836
:1009A800F08F0023EFE700BF142A0020841D0020E9
:1009B800704770474FF400630383704707B5F7210A
:1009C8006A4628F0E9FB9DF801309DF800100C4AB2
:1009D8001B0143EA01339DF8021043EA11139360A7
:1009E8009DF804309DF803101B0143EA01339DF87C
:1009F800051043EA1113536003B05DF804FB00BF10
:100A0800841D0020012380F85030704770B4D0E96D
:100A18000041057B02690223AB4063600B684FF617
:100A2800FE7003400B60EFF31183502181F31288AD
:100A3800D66B3168C9071CD4706870B9D2E909410E
:100A48008C4213D095690D44F56017D81469611A62
:100A580071609062002182F85810326842F00102F9
:100A6800DBB2326083F3118870BC7047012182F8D1
:100A78005810DBB283F3118870BC7047611A71603B
:100A88009462E7E770B40468037B2268022101FAE4
:100A980003F31A4214D001690A4A01EB410102EB3F
:100AA80041124FF6FE7650685289C5680068296879
:100AB80031402960C168D24392B20A40C260636083
:100AC80070BC7047706C002010B50168047B0A6820
:100AD8000223A3401A420AD0054A40680024147031
:100AE800026822F001021204120C02604B6010BD71
:100AF800CC46002070B55B4CE36846F2A712C31AD7
:100B080093422DED028B02D8BDEC028B70BD564B83
:100B1800E0601B6813F0040328D11846534A217F6C
:100B2800127812F0010215D0D9B90125C4E90801DB
:100B38000A46084625770BB14D4B18604D4B1B787C
:100B48000E2BE1D1BDEC028B4B4B1E2158809A80B5
:100B5800198070BD29B1D4E908512277401B4A4257
:100B6800E9E7D4E90812401A5242E4E7434E444800
:100B7800B37905882169013BB1FBF3F19DB3414A83
:100B88009FED410A1368002B1E46B8BFDE1DA3EB7C
:100B9800E603194400290B46B8BFCB1DDB1007EE4E
:100BA800903AF8EEE77A116027EE800AFFF722FC08
:100BB800DFED367A20EE270AFFF762FCF7EE007ABF
:100BC80077EEC07A9FED320AA36967EE807A994280
:100BD800FDEEE77AC4ED057A3ED0013D002305809D
:100BE800A16118469AE707EE901A9FED270A294D4A
:100BF800F8EE677AB7EE008A27EE800AFFF7FAFB6D
:100C0800DFED227A20EE270AFFF73AFCDFED207AA3
:100C180038EE400A20EE270A32F0AAFB3389DFEDCE
:100C28001E6A07EE103A6369C01AB8EEC77A07EE73
:100C3800900AA7EE668AB8EEE70AD5ED097AF8EECB
:100C4800E77A20EE080A67EEA67AA7EE870A32F05E
:100C58008FFB0123686261E7002202801346104679
:100C68005CE700BF841D0020BC690020B07B002029
:100C78002C820020FC78002008790020AC87002016
:100C8800703300200000002008942537B1DC423E74
:100C9800D048874AE02900206F12833A70B544880B
:100CA8000546C4F30B04224608460E46002132F0DE
:100CB800D3FB2B69094A934202D3094A934205D3CD
:100CC8005BB121463046BDE87040184722463046A1
:100CD8001946BDE8704032F0CDBA70BDF8A80308D7
:100CE800F4A9030800230122827003704370C370C3
:100CF800704700BF08B513F067FE084B1B784BB16F
:100D0800012B06D10649074B0748084A0860DA60F4
:100D1800FEE7FDE7034B054ADA60F9E7F43A0020FD
:100D2800FC9F002000ED00E0EFBEADDE0400FA05F8
:100D3800024A034B1278197826F08BBCF53A00204A
:100D4800F63A00202DE9F0478F4A904B12781C782C
:100D5800D207064648D58E4D012C00F08F801ED351
:100D6800022C40F099808B498B4A098812888B4F56
:100D7800914201D901241C70EB7BFBB1AB89EBB12B
:100D8800874B1B78D3B11EF00BFD002800F0DB80E9
:100D98002B7C83422CBF012300233B700FE0DFF83C
:100DA800F4C17E4F7F49BCF800E00A88697C521A7A
:100DB8007245DFDAEB7B0024002BDFD13B782A7AFF
:100DC800632A07D87849022C087800F0B1800028F7
:100DD80040F099807549AA7B9C4238BF1C460C702C
:100DE800002A42D1BDE8F087DFF8A8C1684DBCF8F9
:100DF8000000BCF80210EF88411A0029A4F1030290
:100E0800B8BF4942B8428646D2B213D3B5F800807B
:100E180080450FD3012A45D9654A1278022A9BD109
:100E28005F48644A007890801429CCBF00210121D2
:100E3800D18091E7B0EB470FECDC012A40F28680C5
:100E48001429E9DC0322554FDFF854C1554C5248A8
:100E58001A7000233A708CF8003023800380544BBA
:100E68001B78022B77D0032486E7012C66D0022C4E
:100E7800B8D10720BDE8F0471FF0E4B9464A454914
:100E88001288687C0988121A914207DD454A12883F
:100E98008A423CBF00241C70404F6DE702241C703E
:100EA8003E4F69E71429B7DC3C4F2C7D00223A708D
:100EB8001A70002C5AD0DFF8E89089F800403C49B5
:100EC800B5F802A0AA880878DFF8CC803549A4B222
:100ED80012FB04F21AFB04F4DFF8CCA0A8F80040D7
:100EE80092B24FF06408002402280A808AF8018030
:100EF800CAF804407FF45AAF2E4A99F8000090804F
:100F08000120D0804FE74868301A2B4EB042C8BF46
:100F18004A703FF75FAFC2F16402284E00FB02F04F
:100F280086FB0062C017A0EBA2506430487051E7FE
:100F38000028E8D101274E600F70ECE70820BDE8D3
:100F4800F0471FF07FB902233B7038E7032C7FF48A
:100F580077AF124F83E7124A164B12789A801429FA
:100F6800CCBF00210121D980032405E72C88B0FBE0
:100F7800F4F40134082CA8BF0824DFF82490E4B264
:100F880089F800409BE700BFB07B0020083A0020AA
:100F980044820020B48000200C3A0020183A002037
:100FA800AE5000200A3A0020103A0020908200201B
:100FB800FC780020087900207F9698006BCA5F6B48
:100FC8002DE9F8432E4B1B685B0701D4BDE8F88375
:100FD8002C4C2D4D94F82890B9F1010F3CD1EB69B8
:100FE800284698472B69284698472B6A04F12C0114
:100FF80004F130009847254A26699179D4E90D8390
:10100800D4E90B2008F10107AA625A1C8F4208BFD5
:101018000027032AE8622AD01D49A26394F83C20DD
:1010280041F823004ABB04EB880804EB8703C8F89F
:1010380040001A6CAB896763B61A304400222061FD
:1010480084F82820002BC1D0124A642B1268B8BF3C
:1010580064231361BDE8F8836B6928469847AB6938
:10106800284698470122EB8984F82820EAE7084AAD
:1010780084F83C9000239060A3632BF0CDFED2E768
:10108800BC690020841D0020E0290020AC870020D6
:1010980010700020042F002030B4012200231025F6
:1010A80011244FF6FF71457044710272027002718B
:1010B80043818381C3810182817430BC704700BF42
:1010C80030B50446406D21710368A26823F001031E
:1010D800036087B06379009213F0040F4FEA03327C
:1010E8004FEA032314BF4FF48055002503F48063AF
:1010F80002F400520195CDE90223002511F0010305
:1011080005952ED1049308238D07694648BF04939B
:101118002EF020FE2079636D617900F00202002A2A
:1011280015BF4FF440324FF480324FF4003400249E
:1011380010F0010F586808BF2246CC074CBF024385
:1011480020EA02025A609A6809074CBF42F0080276
:1011580022F008029A601A6842F001021A6007B089
:1011680030BD042304930C23CEE700BF30B50446FA
:10117800406DA160036823F001030360637925795A
:1011880087B013F0040F4FEA03324FEA032303F446
:10119800806302F40052CDE90223009114BF4FF49A
:1011A80080510021EB0748BF042301914FF0000153
:1011B800CDE9041154BF08230493694648BF0C23A2
:1011C800AD0748BF04932EF0C5FD2079636D6179A2
:1011D80000F00202002A15BF4FF440324FF480326B
:1011E8004FF40034002410F0010F586808BF22465D
:1011F800CC074CBF024320EA02025A609A680907EA
:101208004CBF42F0080222F008029A601A6842F0C5
:1012180001021A6007B030BD2DE9F34105690646A1
:101228000F467DBBD0F80080C8F30A0323B3002320
:10123800D6F80080019329F0C3FA042819D1224C6A
:10124800236943F001032361BBB2A8F8003029F0F9
:10125800B7FA04282ED108F102030193019B3F0C31
:101268001F8029F0ADFA2369042823F001032361C4
:1012780025D06FF0010505E029F0A2FA042805D071
:101288004FF0FF35284602B0BDE8F0810E4C2369C7
:1012980043F002032361C4F81480236943F0400338
:1012A800236129F08DFA2369042823F002032361BE
:1012B800BDD0E5E7236923F001032361D9E733684B
:1012C80004333360DEE700BF00200240F8B504466F
:1012D8000D468E180027B54201D12069F8BDE36894
:1012E800591CE160234415F8012B1A720429F2D124
:1012F800A1682046FFF790FFC4E90370EBE700BF41
:1013080038B52C22002132F0A7F8034640F2DC5110
:10131800642040F21A4240F20224187459821320C1
:1013280020219A8240F2753240F26C751C839876BF
:101338000E2402201977DA830A210122DD8283F83C
:101348002A0040F6430583F82B1083F822409A734D
:1013580083F8252083F829201D8419460248BDE812
:1013680038400FF021BD00BF5C65030828F02ABC97
:1013780038B50D4B1B6893B90C4B1D7875B10C4BE8
:10138800002003EBC5051A6899885062D468214388
:10139800D160083323F8040CAB42F4D138BD1DF0FA
:1013A80081FD0028E8D138BD58390020706F002031
:1013B800746F002010B5094C238823EA0000984276
:1013C800208009D0064B41F20241FF2219809A7011
:1013D8000E201EF037FF2388184610BDF278002033
:1013E8009C2E002010B5094C238818439842208071
:1013F80009D0074B41F20241FF2219809A700E2052
:101408001EF020FF2388184610BD00BFF278002088
:101418009C2E0020024A136818431060704700BFD2
:1014280024820020664B67482DE9F0415C220124A4
:10143800654E1C70002132F00FF8644A6449654D0E
:10144800002330460B6013601EF02EFB2146204619
:101458001EF078FB214606201EF074FB6F7A5E4B67
:10146800391C1A8E5D4B93FBF2F318BF0121642BD4
:10147800B8BF64230820C6F848311EF063FB95F80E
:101488000A8018F100014FF0090018BF01211EF071
:1014980059FBAB7B002B5CD0514C002F63D118F16A
:1014A800000118BF01214F4D0A201EF04BFB2B688D
:1014B800D8075AD4990773D4012105201EF042FB9E
:1014C800002107201EF03EFB01210B201EF03AFBF5
:1014D80029680C20C1F380011EF034FB2B685A07E1
:1014E80056BF21680121C1F3C0110D201EF02AFB4F
:1014F80021684B0545D4C1F300410F201EF022FBA3
:10150800216811F4802104D0374B1968003118BFC5
:10151800012110201EF016FB21681120C1F3C061C3
:101528001EF010FB012112201EF00CFB01211320DC
:101538001EF008FB012114201EF004FB2B4B196838
:1015480000314FF0150018BF0121BDE8F0411EF031
:10155800F9BAEB7B224C002B9FD1216811F4802132
:10156800A1D0002F9BD001219DE7214B1B68642B44
:10157800B8BF642301210220B3671EF0E3FA2B6889
:1015880098E701210E201EF0DDFA1A4B21681B7A1C
:10159800083B012B9CBF4FF4FA63C6F8E832AAE770
:1015A800012103201EF0CEFA134B9B6A642BB8BFAF
:1015B800642301210420C6F8AC301EF0C3FA7BE78F
:1015C8008C3A0020303A002070010020903A002028
:1015D8002C3A0020448200208478002040420F00EA
:1015E800B0690020BC690020BC8000203050002079
:1015F80014630020B86F0020A0820020022838B5AC
:1016080004460DD8C0EBC003084A094D0949C0EB90
:10161800C30302EB430318462B600C7012F0D2FC94
:10162800601CC0B2BDE838401EF04EBE544A0020CF
:10163800444A0020787E002038B52B4B2B481A7876
:101648005B782B492B4CC2EBC205C2EBC50203EBFE
:10165800430503EB8503284D01EB430300EB4202EE
:101668002B60226019F02CFA00213022234831F037
:10167800F3FE206812F0A6FC214B03F1780102E08A
:1016880006338B422ED01A78002AF9D19C78D87864
:10169800844202D358790028F2D01A491A4B0879A3
:1016A8001A491B4C0A70C822642111FB0021002230
:1016B8001848DA61C3E90112C3E90322C3E9052224
:1016C80083F8202083F82120C4F800010EF05AFE88
:1016D80094F80611B4F8040113F004FFBDE838408B
:1016E80025F03AB90122D8E7787E0020544A002034
:1016F800D84B0020444A0020EC780020C833002052
:101708003C2700200C2F0020D87F00204C0600200A
:10171800841D00202A7B0020F0B40C292BD8DFE898
:1017280001F0752A2A2A502A2A2A2C2A2A2A07004E
:10173800046AB2F80CC0978816686B4D24F480547C
:101748000462036A4468C16923F4005343EA0C3312
:1017580021F4E641A84243EA073341EA062100F0B2
:10176800BC8005F50065A84200F0B7809268446027
:10177800C16102640362F0BC7047046AB2F80CC02D
:1017880097881668584D24F480740462036A446884
:10179800C16923F4007343EA0C2321F07301A842C2
:1017A80043EA072341EA060100F0848005F5006555
:1017B800A8427FD092684460C161F0BCC2630362F2
:1017C8007047046AB2F80CC097881668464D24F032
:1017D80010040462036A4468816923F0200321F03D
:1017E800807143EA0C1321F4E641A84243EA071347
:1017F80041EA06214BD005F50065A84247D092681A
:1018080044608161F0BC826303627047046A938913
:10181800B2F804C01768344E24F001040462046A64
:101828004568816921F4803124F0020443EA0C03FD
:1018380021F07301B04243EA040341EA07010ED0E4
:101848002A4CA0420BD004F54064A04207D004F50E
:101858008064A04203D004F58064A04210D1D489EA
:10186800168A578AB2F806C023F00803234325F4E2
:10187800407523F0040346EA07044CEA03032543B2
:10188800926845608161F0BC426303627047D58904
:10189800178AD68823F0800343EA051324F44064AA
:1018A800558A23F0400344EA870443EA061344EACE
:1018B8008504A4E7D589178AD68823F4006343EA08
:1018C800052324F44054558A23F4806344EA07141A
:1018D80043EA062344EA05146CE7158A24F4804495
:1018E80044EA851442E700BF002C0140003401405F
:1018F8002DE9F84FF02200213148324CDFF8DC9016
:10190800314D324E324FDFF8D88031F0A5FD314AE3
:101918003149DFF8D0C0DFF8D0E002F1E000136809
:10192800A3423DD0B3F1804F3CD0AB423CD0B34250
:101938003CD0BB423CD063453CD073453CD043458A
:101948003CD0DFF8A8A053450AD00AF5806A534571
:1019580008BF092305D01C329042E0D1BDE8F88FBA
:10196800082309EBC3034FF0010A1B7E03F01F0B8A
:101978005B09022B0AFA0BFA08D0032B0BD0012BB8
:10198800E9D14B694AEA03034B61E4E78B694AEA08
:1019980003038B61DFE7CB694AEA0303CB61DAE72C
:1019A8000023DEE70123DCE70223DAE70323D8E795
:1019B8000423D6E70523D4E70623D2E70723D0E795
:1019C8003C5E0020002C014000040040000800405C
:1019D80000100040EC5D03080010024008350308C1
:1019E8000040014000140040003401400044014020
:1019F8002DE9F8432F4D2A69EB6812EA030826D02F
:101A08002D4E4FF00047B8FA88F327FA03F2D24375
:101A18001B3B2A6108EA0208042B15D8DFE803F00B
:101A2800372D23190300D6F8EC30002B39D1EB6A97
:101A38001FFA83F9D6F8E84034B1236820464946AE
:101A480098476468002CF8D1B8F1000FDBD1BDE8E5
:101A5800F883D6F8C800696B036889B29847B8F16B
:101A6800000FD0D1F3E7D6F8CC00A96B036889B290
:101A78009847B8F1000FC6D1E9E7D6F8D000E96B6E
:101A8800036889B29847B8F1000FBCD1DFE7D6F8F0
:101A9800D400296C036889B29847B8F1000FB2D115
:101AA800D5E703F1FF3900231FFA89F9C6F8EC30AE
:101AB800C0E700BF004001403C5E00202DE9F8432C
:101AC8002F4D2A69EB6812EA030826D02D4E4FF0F5
:101AD8000047B8FA88F327FA03F2D2431B3B2A617E
:101AE80008EA0208042B15D8DFE803F0372D23197C
:101AF8000300D6F8C430002B39D1EB6A1FFA83F9FA
:101B0800D6F8C04034B123682046494698476468EF
:101B1800002CF8D1B8F1000FDBD1BDE8F883D6F876
:101B2800A000696B036889B29847B8F1000FD0D15B
:101B3800F3E7D6F8A400A96B036889B29847B8F10F
:101B4800000FC6D1E9E7D6F8A800E96B036889B2A7
:101B58009847B8F1000FBCD1DFE7D6F8AC00296C84
:101B6800036889B29847B8F1000FB2D1D5E703F1FD
:101B7800FF3900231FFA89F9C6F8C430C0E700BF4F
:101B8800003401403C5E00202DE9F8432F4D2A69BE
:101B9800EB6812EA030826D02D4E4FF00047B8FA3A
:101BA80088F327FA03F2D2431B3B2A6108EA0208AA
:101BB800042B15D8DFE803F0372D23190300D6F8D6
:101BC800C430002B39D1EB6A1FFA83F9D6F8C0402C
:101BD80034B123682046494698476468002CF8D1F8
:101BE800B8F1000FDBD1BDE8F883D6F8A000696B27
:101BF800036889B29847B8F1000FD0D1F3E7D6F857
:101C0800A400A96B036889B29847B8F1000FC6D140
:101C1800E9E7D6F8A800E96B036889B29847B8F1F4
:101C2800000FBCD1DFE7D6F8AC00296C036889B295
:101C38009847B8F1000FB2D1D5E703F1FF39002377
:101C48001FFA89F9C6F8C430C0E700BF0034014064
:101C58003C5E00202DE9F8432E4D2A69EB6812EA14
:101C6800030826D02C4E4FF00047B8FA88F327FA1D
:101C780003F2D2431B3B2A6108EA0208042B15D859
:101C8800DFE803F0352B22190300D6F89C30002B2F
:101C980037D1EB6A1FFA83F9D6F8984034B1236834
:101CA8002046494698476468002CF8D1B8F1000FDF
:101CB800DBD1BDE8F883B06F696B036889B29847D8
:101CC800B8F1000FD1D1F4E7F06FA96B036889B2BE
:101CD8009847B8F1000FC8D1EBE7D6F88000E96B58
:101CE800036889B29847B8F1000FBED1E1E7D6F88A
:101CF8008400296C036889B29847B8F1000FB4D101
:101D0800D7E703F1FF3900231FFA89F9C6F89C3099
:101D1800C2E700BF000800403C5E00202DE9F84300
:101D28002B4D2A69EB6812EA030824D0294E4FF09C
:101D38000047B8FA88F327FA03F2D2431B3B2A611B
:101D480008EA0208042B13D8DFE803F03229201729
:101D58000300736F002B34D1EB6A1FFA83F9346FD9
:101D680034B123682046494698476468002CF8D166
:101D7800B8F1000FDDD1BDE8F883306D696B0368F9
:101D880089B29847B8F1000FD3D1F4E7706DA96B09
:101D9800036889B29847B8F1000FCAD1EBE7B06D74
:101DA800E96B036889B29847B8F1000FC1D1E2E73F
:101DB800F06D296C036889B29847B8F1000FB8D163
:101DC800D9E703F1FF3900231FFA89F97367C6E7DA
:101DD800000400403C5E00202DE9F8434FF08045A8
:101DE8002A69EB6812EA030824D0294E4FF000470D
:101DF800B8FA88F327FA03F2D2431B3B2A6108EAB0
:101E08000208042B13D8DFE803F032292017030057
:101E1800F36C002B34D1EB6A1FFA83F9B46C34B13C
:101E280023682046494698476468002CF8D1B8F1E1
:101E3800000FDDD1BDE8F883B06A696B036889B229
:101E48009847B8F1000FD3D1F4E7F06AA96B03689B
:101E580089B29847B8F1000FCAD1EBE7306BE96B4C
:101E6800036889B29847B8F1000FC1D1E2E7706BF7
:101E7800296C036889B29847B8F1000FB8D1D9E73F
:101E880003F1FF3900231FFA89F9F364C6E700BF9D
:101E98003C5E00202DE9F8432B4D2A69EB6812EAD5
:101EA800030824D0294E4FF00047B8FA88F327FAE0
:101EB80003F2D2431B3B2A6108EA0208042B13D819
:101EC800DFE803F0322920170300736A002B34D1AE
:101ED800EB6A1FFA83F9346A34B12368204649460D
:101EE80098476468002CF8D1B8F1000FDDD1BDE83F
:101EF800F8833068696B036889B29847B8F1000FB6
:101F0800D3D1F4E77068A96B036889B29847B8F130
:101F1800000FCAD1EBE7B068E96B036889B298474C
:101F2800B8F1000FC1D1E2E7F068296C036889B203
:101F38009847B8F1000FB8D1D9E703F1FF3900236A
:101F48001FFA89F97362C6E7002C01403C5E002045
:101F58002DE9F8432B4D2A69EB6812EA030824D0CF
:101F6800294E4FF00047B8FA88F327FA03F2D24314
:101F78001B3B2A6108EA0208042B13D8DFE803F0A8
:101F8800322920170300736A002B34D1EB6A1FFA39
:101F980083F9346A34B1236820464946984764680F
:101FA800002CF8D1B8F1000FDDD1BDE8F883306816
:101FB800696B036889B29847B8F1000FD3D1F4E789
:101FC8007068A96B036889B29847B8F1000FCAD145
:101FD800EBE7B068E96B036889B29847B8F1000F7E
:101FE800C1D1E2E7F068296C036889B29847B8F173
:101FF800000FB8D1D9E703F1FF3900231FFA89F997
:102008007362C6E7002C01403C5E0020F0B506680C
:10201800494CB30AA34200F08C800AD9474CA3422A
:1020280063D00334A34200F08180053CA3425FD013
:10203800F0BDB3F5801F76D0013CA342F8D17027DC
:10204800022590F805C002232CFA03F08446834049
:10205800A800002954D0D6F80CE044190CEB440C25
:102068009BB2374C43EA0E030CF1040E44F82C10D3
:1020780044F82E20F360E319EFF31181502282F324
:102088001288421904EBC202D2F810C0BCF1000F4A
:1020980003D044F807C013690433421904EBC202A1
:1020A800576917B11F6053690433421904EBC20220
:1020B800976917B11F6093690433421904EBC20290
:1020C800D76917B11F60D36904330022C9B21A60F7
:1020D80081F31188284404EBC004236A5BB9F368D0
:1020E8004FF6FE721340F360F0BDC0270425A8E741
:1020F80020270025A5E7F36843F00103F360F0BD4E
:10210800D6F80CE00E4CDB439BB203EA0E0300EB5F
:10211800050E0CEB4E0CF3600CF1040344F82C1084
:1021280044F82320A7E7482701258AE7E82705255B
:1021380087E79827032584E7020010004D00100068
:102148003C5E002030B50368594D1888594CB4FBE3
:10215800F2F20139013AAB4294B283B089B282B249
:102168000DD0554883420AD0B3F1804F07D0A0F56F
:102178009830834203D000F58060834202D122F078
:10218800700292B24D48834269D000F58060834264
:1021980041D022F4407200F58C3092B283421A800A
:1021A800D9621C8564D100221A8601225A611A88D4
:1021B8003F4942F001028B421A8069D0B3F1804F47
:1021C80068D03F4A934267D002F58062934265D057
:1021D80002F50062934263D002F58062934261D0B7
:1021E80002F5903293425FD002F5406293425DD08F
:1021F80002F58062934217D002F58062934208BFCD
:10220800092212D002A84FF0012340F8043D2DF016
:10221800EDF903B030BD01201A80D9621C855861E0
:102228001A8802431A80C9E70822264B03EBC20327
:1022380001A85C7E8DF80440012300228DF805304A
:102248008DF807308DF806202DF0D0F91B2CE0D141
:102258001D4B019301A82DF0C9F903B030BD012031
:102268001A80D9621C8558611A8802431A80A8E727
:10227800114A934297D002F54062934293D002F5F7
:10228800806293428FD002F5806293428BD08CE7B4
:102298000022CAE70122C8E70222C6E70322C4E7F0
:1022A8000422C2E70522C0E70622BEE70722BCE7F0
:1022B800002C014000A24A040034014000100040F4
:1022C8000004004008350308190100011F4B98421B
:1022D8002CD0B0F1804F2BD0A3F59433984229D05D
:1022E80003F58063984227D003F50063984225D010
:1022F80003F58063984223D003F59033984221D0A8
:1023080003F5406398421FD003F58063984207D0D5
:1023180003F58063984208BF092202D00020704765
:1023280008220B4B03EBC203187E70470022F8E724
:102338000122F6E70222F4E70322F2E70422F0E79B
:102348000522EEE70622ECE70722EAE7002C014027
:1023580008350308002330B40F4A1D46012404E061
:102368000133082B0DD012F81C4C30EA040402F19A
:102378001C02F5D1A94207D001330135082BEDB273
:10238800F1D1002030BC7047044AC3EBC30302EB11
:10239800830330BC187970470E5E0308EC5D0308B0
:1023A80010B5002104460120FFF7D4FF207010BDAE
:1023B80068B10A4A2421002301E012F81C1C884253
:1023C80002F11C0204D00133082BF6D1002070471B
:1023D8000348C3EBC30300EB830070470C5E03089C
:1023E800EC5D03082DE9F04F85B0CDE902109B4D57
:1023F800DFF878A2029B013B0293013300F02A81A7
:1024080027F0ECF8964C974FDFF864E2964E4FF4BD
:10241800FA7301934FF01008DEF80430C3F3080391
:10242800002B40F0F680EFF31183002B40F0F18091
:102438002068AA6823689842FAD133689A42F7D884
:10244800D7F800C04FF47A7101FB0CF39B1AB3FB69
:10245800FCF301FB00304FF47A7C4FF00109DEF801
:102468000430C3F30803002B40F0B580EFF3118369
:10247800002B40F0B0802368A96822689342FAD103
:1024880032689142F7D83A680CFB02FBABEB0101CA
:10249800B1FBF2F10CFB03131B1AB3F57A7FDED301
:1024A800019B013B0193B7D1039B6F4E581CC0B2EF
:1024B80026F0E8FEDFF8B8E14FF47A730193DEF80E
:1024C8000430C3F308034FF01008002B44D1EFF396
:1024D8001183002B40D12068AA6823689842FAD15A
:1024E80033689A42F7D8D7F800C04FF47A7101FBE5
:1024F8000CF39B1AB3FBFCF301FB00304FF47A7C1E
:102508004FF00109DEF80430C3F30803002B44D16F
:10251800EFF31183002B40D12368A9682268934206
:10252800FAD132689142F7D83A680CFB02FBABEB60
:102538000101B1FBF2F10CFB03131B1AB3F57A7F0F
:10254800E0D3019B013B01933FF454AFDEF8043024
:10255800C3F30803002BBAD0EFF3118388F3128872
:10256800D5F808C02A68D20304D50122CAF8002089
:10257800D5F808C02068DAF80090DBB283F3118838
:1025880039684FF47A72484402FB01F3A3EB0C0359
:10259800B3FBF1F302FB0030B0E7EFF3118188F3EE
:1025A8001288D5F808B02B68DB0344BFCAF800903E
:1025B800D5F808B02368DAF80020C9B281F3118889
:1025C800396813440CFB01F2A2EB0B02B2FBF1F2E7
:1025D8000CFB0323B1E7EFF3118188F31288D5F8D8
:1025E80008B02B68DB0344BFCAF80090D5F808B0E0
:1025F8002368DAF80020C9B281F3118839681344D6
:102608000CFB01F2A2EB0B02B2FBF1F20CFB032371
:1026180042E7EFF3118388F31288D5F808C02A68D7
:10262800D20304D50122CAF80020D5F808C02068D2
:10263800DAF80090DBB283F3118839684FF47A72C4
:10264800484402FB01F3A3EB0C03B3FBF1F302FBD9
:10265800003000E705B0BDE8F08F00BF10E000E0F3
:10266800B4550020B8550020BC550020B0550020B6
:1026780000ED00E0224B5B68C3F3080330B4D3B924
:10268800EFF31183BBB91F4A1F4D204813688468B4
:1026980011688B42FAD129688C42F7D81C4A116814
:1026A8004FF47A7202FB01F0001B30BCB0FBF1F072
:1026B80002FB03007047EFF31182102383F31288A3
:1026C80003F1E023D2B29C68196811F4803F1149E4
:1026D8001EBF012008609C680A4B18680B6882F3CB
:1026E80011880B4A11684FF47A72034402FB01F017
:1026F800001B30BCB0FBF1F002FB0300704700BFC9
:1027080000ED00E0B4550020BC55002010E000E0CA
:10271800B8550020B05500202DE9F84F8046274CC9
:10272800274DDFF8A490274EFFF7A4FFDFF89CE0C1
:10273800DFF89CC04FF0100A4FF47A77DCF80430C9
:10274800C3F30803CBB9EFF31183B3B92368A968BE
:1027580022689342FAD132689142F7D8DEF8002015
:1027680007FB02FBABEB0101B1FBF2F107FB031323
:102778001B1A4345E2D3BDE8F88FEFF311818AF3C2
:102788001288D5F808B02B68DB0304D50123C9F8F3
:102798000030D5F808B02368D9F80020C9B281F311
:1027A8001188DEF80010134407FB01F2A2EB0B02BC
:1027B800B2FBF1F207FB0323DAE700BFB4550020B0
:1027C80010E000E0BC550020B0550020B8550020AE
:1027D80000ED00E02DE9F04FDFF834C1494CDFF897
:1027E80034E1DFF83481484E824648481AF1FF3A0E
:1027F800C0F08680DCF80430C3F30803002B5ED1F8
:10280800EFF31183002B5AD10568A26803689D4233
:10281800FAD133689A42F7D8DEF800704FF47A712B
:1028280001FB07F39B1AB3FBF7F301FB0535DCF853
:102838000430C3F308034FF010094FF47A77F3B963
:10284800EFF31183DBB90368A16802689342FAD1F8
:1028580032689142F7D8DEF8002007FB02FBABEBA9
:102868000101B1FBF2F107FB03135B1BB3F57A7FA0
:10287800BCD2DCF80430C3F30803002BE0D0EFF33C
:10288800118189F31288D4F808B02368DB0304D5D2
:102898000123C8F80030D4F808B00368D8F800203D
:1028A800C9B281F31188DEF80010134407FB01F266
:1028B800A2EB0B02B2FBF1F207FB0323D5E7EFF320
:1028C8001183102282F31288A1682268D20303D5EB
:1028D8000122C8F80020A168D0F80090D8F800506C
:1028E800DBB283F31188DEF800704FF47A724D443E
:1028F80002FB07F35B1AB3FBF7F302FB053596E718
:10290800BDE8F08F10E000E0BC550020B455002071
:1029180000ED00E0B8550020B055002030B4EFF3CA
:102928001183102282F31288084809490268094D68
:10293800094C013202608A682A6000222260DBB2F8
:102948000A6883F3118830BC704700BFB455002073
:1029580010E000E0BC550020B05500201D4B70B5BC
:102968009C68636DA26BDD69CAB1E36B33B12B0759
:1029780000D470BD636D08221A6270BD2A06F6D5B0
:10298800D4E909028242616D11D0501CA669A06287
:10299800B25C26690A85B042E9D3A362E7E7A906D3
:1029A800E3D5E26A42B1988C216B9047DDE70B686A
:1029B80023F080030B60DAE7E1699B8C6069DBB286
:1029C8004E1CE6614354E169E368994228BFE2611D
:1029D800CBE700BFB44000201D4B70B55C68636D49
:1029E800A26BDD69CAB1E36B33B12B0700D470BDAC
:1029F800636D08221A6270BD2A06F6D5D4E9090269
:102A08008242616D11D0501CA669A062B25C266931
:102A18000A85B042E9D3A362E7E7A906E3D5E26AEB
:102A280042B1988C216B9047DDE70B6823F0800357
:102A38000B60DAE7E1699B8C6069DBB24E1CE661EA
:102A48004354E169E368994228BFE261CBE700BFDC
:102A5800B44000201D4B70B51C68636DA26BDD6926
:102A6800CAB1E36B33B12B0700D470BD636D082284
:102A78001A6270BD2A06F6D5D4E909028242616D50
:102A880011D0501CA669A062B25C26690A85B042C2
:102A9800E9D3A362E7E7A906E3D5E26A42B1988CD5
:102AA800216B9047DDE70B6823F080030B60DAE7C2
:102AB800E1699B8C6069DBB24E1CE6614354E169B5
:102AC800E368994228BFE261CBE700BFB440002029
:102AD800002A12DD70B504460D468E18236820467C
:102AE8009B6898470028F9D0236815F8011B1B68D4
:102AF80020469847B542F1D170BD70470368DB6A3C
:102B080003B11847704700BF03689B6A03B11847B1
:102B1800704700BF03682DE9F0415D6A1DB12B467F
:102B2800BDE8F0411847002A174611DD04460E4655
:102B38000F4400E023689B68204698470028F9D096
:102B4800236816F8011B1B6820469847BE42F1D13E
:102B5800BDE8F08103685B69184700BF0368DB685C
:102B6800184700BF03689B68184700BF03685B6885
:102B7800184700BF03681B68184700BF014BD3F80C
:102B88000801F7E7841D0020054B53F8203033B1C6
:102B98001A689B88918A0B4218BF1B04936170477F
:102BA8008055002003682DE9F04F03F13845A94E00
:102BB800AD0A0124755D05F01F066D09022D04FAA2
:102BC80006F400F08D81032D00F08581012D00F0C1
:102BD8003B818088B0FA80F4C4F11F04A4B2E508F0
:102BE80003EB850504F007042E6AA4000F27A7400D
:102BF80026EA07062E622E6A01F0030702FA04F499
:102C08007A1E3443012AC1F3810EC1F300182C62E5
:102C1800C1F3411140F22281C60700F108818507FE
:102C280000F1F680440700F1E480020700F1D28049
:102C3800C60600F1C080850600F1AE80440600F1AA
:102C48009C80020600F18A80C60578D4850567D481
:102C5800440556D4020545D4C60434D4850423D487
:102C6800440412D4020401D4BDE8F08F1A6822F09B
:102C780040421A601A6842EA87771F60DA6822F0D1
:102C8800404242EA8171D960EEE71A6822F0405268
:102C98001A601A6842EA07721A60DA6822F040522B
:102CA80042EA0172DA60DDE71A6822F040621A60CF
:102CB8001A6842EA87621A60DA6822F0406242EAD9
:102CC8008162DA60CCE71A6822F040721A601A68EA
:102CD80042EA07621A60DA6822F0407242EA016248
:102CE800DA60BBE71A6822F440021A601A6842EAFE
:102CF80087521A60DA6822F4400242EA8152DA60A6
:102D0800AAE71A6822F440121A601A6842EA0752BF
:102D18001A60DA6822F4401242EA0152DA6099E74E
:102D28001A6822F440221A601A6842EA87421A6036
:102D3800DA6822F4402242EA8142DA6088E71A68B7
:102D480022F440321A601A6842EA07421A60DA68C6
:102D580022F4403242EA0142DA6077E71A6822F444
:102D680040421A601A6842EA87321A60DA6822F426
:102D7800404242EA8132DA6066E71A6822F4405239
:102D88001A601A6842EA07321A60DA6822F4405276
:102D980042EA0132DA6054E71A6822F440621A60A3
:102DA8001A6842EA87221A60DA6822F4406242EA24
:102DB8008122DA6042E71A6822F440721A601A68BF
:102DC80042EA07221A60DA6822F4407242EA0122D3
:102DD800DA6030E71A6822F0C0021A601A6842EA1C
:102DE80087121A60DA6822F0C00242EA8112DA60B9
:102DF8001EE71A6822F030021A601A6842EA0712BF
:102E08001A60DA6822F0300242EA0112DA600CE74E
:102E18001A6822F00C021A601A6842EA87021A60DD
:102E2800DA6822F00C0242EA8102DA60FAE61A68ED
:102E380022F003021A601A683A431A60DA6822F02C
:102E480003020A43DA60EAE6034D6E6934436C61B3
:102E5800BFE600BF905D03080010024000224FF05B
:102E6800010C4FF003090CFA02F636EA00042ED1E1
:102E78005400D3F808A009FA04F5ED4305EA0A0A54
:102E8800C3F808A0D3F808B00EFA04FA4AEA0B0A05
:102E9800C3F808A0B3F804A02AEA06069E80B3F88F
:102EA80004A008FA02F646EA0A06B6B29E801E6830
:102EB8002E401E60D3F800A007FA04F646EA0A0678
:102EC8001E60DE6801FA04F435402C43DC600132F0
:102ED800102AC8D1C8E6054DEE693443EC6178E69E
:102EE800024DAE693443AC6173E600BF0010024086
:102EF800036803F138422DE9F04F920AA74DAA5C06
:102F080002F01F0552090124022A04FA05F400F010
:102F18009F81032A00F09781012A00F0518101F076
:102F280003077A1E012AC1F3810EC1F300188488B1
:102F3800C1F3411140F24981E60700F13181A5074B
:102F480000F11A81600700F10581220700F1F08085
:102F5800E60600F1DB80A50600F1C680600600F1F8
:102F6800B180220600F19C80E60500F18780A50566
:102F780072D460055FD422054CD4E60439D4A50484
:102F880026D4600413D4220401D4BDE8F08F1A6853
:102F980022F040421A601A6842EA87771F60DA68AE
:102FA80022F0404242EA8171D960BDE8F08F1A6888
:102FB80022F040521A601A6842EA07721A60DA6808
:102FC80022F0405242EA0172DA602204DDD5DEE7DF
:102FD8001A6822F040621A601A6842EA87621A6028
:102FE800DA6822F0406242EA81626004DA60CAD597
:102FF800DDE71A6822F040721A601A6842EA07622E
:103008001A60DA6822F0407242EA0162A504DA60C6
:10301800B7D5DDE71A6822F440021A601A6842EA56
:1030280087521A60DA6822F4400242EA8152E604C2
:10303800DA60A4D5DDE71A6822F440121A601A682B
:1030480042EA07521A60DA6822F4401242EA015250
:10305800DA60220591D5DDE71A6822F440221A6069
:103068001A6842EA87421A60DA6822F4402242EA81
:1030780081426005DA607FF57EAFDCE71A6822F4EA
:1030880040321A601A6842EA07421A60DA6822F483
:10309800403242EA0142A505DA607FF56AAFDBE714
:1030A8001A6822F440421A601A6842EA87321A60A3
:1030B800DA6822F4404242EA8132E605DA607FF5B6
:1030C80056AFDBE71A6822F440521A601A6842EADF
:1030D80007321A60DA6822F4405242EA0132DA60B2
:1030E80022067FF541AFDBE71A6822F440621A60D6
:1030F8001A6842EA87221A60DA6822F4406242EAD1
:1031080081226006DA607FF52CAFDBE71A6822F4CB
:1031180040721A601A6842EA07221A60DA6822F4D2
:10312800407242EA0122A506DA607FF517AFDBE7B5
:103138001A6822F0C0021A601A6842EA87121A60F6
:10314800DA6822F0C00242EA8112E606DA607FF508
:1031580002AFDBE71A6822F030021A601A6842EA06
:1031680007121A60DA6822F0300242EA0112DA60C5
:1031780022077FF5EDAEDBE71A6822F00C021A6031
:103188001A6842EA87021A60DA6822F00C0242EAF8
:1031980081026007DA607FF5D8AEDBE7905D03084F
:1031A8001A6822F003021A601A683A431A60DA6849
:1031B80022F003020A43A507DA607FF5C3AEDBE716
:1031C800264A55692C435461A9E600224FF0010CA8
:1031D8004FF003090CFA02F636EA04002ED150002B
:1031E800D3F808A009FA00F5ED430AEA050AC3F87E
:1031F80008A0D3F808B00EFA00FA4AEA0B0AC3F896
:1032080008A0B3F804A02AEA06069E80B3F804A032
:1032180008FA02F646EA0A06B6B29E801E682E40F2
:103228001E60D3F800A007FA00F646EA0A061E60F8
:10323800DE6801FA00F035402843D8600132102AD0
:10324800C8D1BDE8F08F054AD5692C43D46166E63C
:10325800024A95692C43946161E600BF0010024060
:1032680010B50409013C052C17D80E4B33F814206F
:1032780000F00F0042FA00F313F001030FD001230E
:1032880003FA00F0013810402FF018FD064A074BEA
:10329800125D104403EBC00010BD002010BD18469D
:1032A80010BD00BFCC5E0308D85E03081C54002084
:1032B8002DE9F04F4A484B4B4B4C4FF090414FF0A3
:1032C800010A4FF002094FF004084FF0080E4FF0C2
:1032D800100C20274026802530F8022B12F0010F11
:1032E80003D01960A3F804A0083312F0020F03D02A
:1032F8001960A3F80490083312F0040F03D0196082
:10330800A3F80480083312F0080F03D01960A3F85B
:1033180004E0083312F0100F03D01960A3F804C0BA
:10332800083312F0200F02D019609F80083312F082
:10333800400F02D019609E80083312F0800F02D02F
:1033480019609D80083312F4807F05D04FF4807B8C
:103358001960A3F804B0083312F4007F05D04FF4C5
:10336800007B1960A3F804B0083312F4806F05D00D
:103378004FF4806B1960A3F804B0083312F4006F9F
:1033880005D04FF4006B1960A3F804B0083312F4A9
:10339800805F05D04FF4805B1960A3F804B0083350
:1033A80012F4005F05D04FF4005B1960A3F804B075
:1033B800083312F4804F05D04FF4804B1960A3F8FE
:1033C80004B00833D20B04D04FF4004219609A803D
:1033D800083301F58061A1427FF47EAFBDE8F08F2C
:1033E800CC5E03081C5400200018004800B9704740
:1033F80003682DE9F04F03F138449C4EA40A0125D7
:10340800345D04F01F066409022C05FA06F500F085
:103418007481032C00F06C81012C00F022818088DB
:10342800B0FA80F4C4F11F04A4B2E50803EB8505E3
:1034380004F007042E6AA4000F27A74026EA07060F
:103448002E622E6A01F00307A2407C1E3243012C33
:10345800C1F3810EC1F300182A62C1F3411140F291
:103468000981C6070BD51A6822F003021A601A6888
:103478003A431A60DA6822F003020A43DA608507E1
:103488000DD51A6822F00C021A601A6842EA8702FF
:103498001A60DA6822F00C0242EA8102DA60440714
:1034A8000DD51A6822F030021A601A6842EA07122B
:1034B8001A60DA6822F0300242EA0112DA60020782
:1034C8000DD51A6822F0C0021A601A6842EA8712FB
:1034D8001A60DA6822F0C00242EA8112DA60C6068F
:1034E8000DD51A6822F440721A601A6842EA072257
:1034F8001A60DA6822F4407242EA0122DA6085062C
:103508000DD51A6822F440621A601A6842EA8722C6
:103518001A60DA6822F4406242EA8122DA604406DC
:103528000DD51A6822F440521A601A6842EA073226
:103538001A60DA6822F4405242EA0132DA6002067E
:103548000DD51A6822F440421A601A6842EA873296
:103558001A60DA6822F4404242EA8132DA60C6052B
:103568000DD51A6822F440321A601A6842EA0742F6
:103578001A60DA6822F4403242EA0142DA608505CC
:103588000DD51A6822F440221A601A6842EA874266
:103598001A60DA6822F4402242EA8142DA6044057D
:1035A8000DD51A6822F440121A601A6842EA0752C6
:1035B8001A60DA6822F4401242EA0152DA6002051F
:1035C8000DD51A6822F440021A601A6842EA875236
:1035D8001A60DA6822F4400242EA8152DA60C604CC
:1035E8000DD51A6822F040721A601A6842EA07621A
:1035F8001A60DA6822F0407242EA0162DA608504F1
:103608000DD51A6822F040621A601A6842EA876289
:103618001A60DA6822F0406242EA8162DA604404A1
:103628000DD51A6822F040521A601A6842EA0772E9
:103638001A60DA6822F0405242EA0172DA60020443
:103648000DD51A6822F040421A601A6842EA877754
:103658001F60DA6822F0404242EA8171D960BDE811
:10366800F08F034C666935436561D8E6905D0308C1
:103678000010024000224FF0010C4FF003090CFA31
:1036880002F636EA00042ED15400D3F808A009FA4D
:1036980004F5ED4305EA0A0AC3F808A0D3F808B010
:1036A8000EFA04FA4AEA0B0AC3F808A0B3F804A011
:1036B8002AEA06069E80B3F804A008FA02F646EA4B
:1036C8000A06B6B29E801E682E401E60D3F800A07F
:1036D80007FA04F646EA0A061E60DE6801FA04F4F0
:1036E80035402C43DC600132102AC8D1BDE8F08F88
:1036F800044CE6693543E56191E6024CA669354319
:10370800A5618CE60010024000B97047036803F118
:1037180038422DE9F04F920AB24DAA5C02F01F051B
:1037280052090124022A04FA05F400F05F81032AF1
:1037380000F05381012A00F00D8101F003077A1E81
:10374800012AC1F3810EC1F300188488C1F3411125
:1037580040F20581E6070BD51A6822F003021A60C9
:103768001A683A431A60DA6822F003020A43DA60F8
:10377800A5070DD51A6822F00C021A601A6842EAE9
:1037880087021A60DA6822F00C0242EA8102DA60E3
:1037980060070DD51A6822F030021A601A6842EAEA
:1037A80007121A60DA6822F0300242EA0112DA607F
:1037B80022070DD51A6822F0C0021A601A6842EA78
:1037C80087121A60DA6822F0C00242EA8112DA60CF
:1037D800E6060DD51A6822F440721A601A6842EAA1
:1037E80007221A60DA6822F4407242EA0122DA609B
:1037F800A5060DD51A6822F440621A601A6842EAD2
:1038080087221A60DA6822F4406242EA8122DA608A
:1038180060060DD51A6822F440521A601A6842EA06
:1038280007321A60DA6822F4405242EA0132DA605A
:1038380022060DD51A6822F440421A601A6842EA34
:1038480087321A60DA6822F4404242EA8132DA604A
:10385800E6050DD51A6822F440321A601A6842EA61
:1038680007421A60DA6822F4403242EA0142DA601A
:10387800A5050DD51A6822F440221A601A6842EA92
:1038880087421A60DA6822F4402242EA8142DA600A
:1038980060050DD51A6822F440121A601A6842EAC7
:1038A80007521A60DA6822F4401242EA0152DA60DA
:1038B80022050DD51A6822F440021A601A6842EAF5
:1038C80087521A60DA6822F4400242EA8152DA60CA
:1038D800E6040DD51A6822F040721A601A6842EAA6
:1038E80007621A60DA6822F0407242EA0162DA601E
:1038F800A5040DD51A6822F040621A601A6842EAD7
:1039080087621A60DA6822F0406242EA8162DA600D
:1039180060040DD51A6822F040521A601A6842EA0B
:1039280007721A60DA6822F0405242EA0172DA60DD
:1039380022040DD51A6822F040421A601A6842EA39
:1039480087771F60DA6822F0404242EA8171D960C5
:10395800BDE8F08F244A55692C435461EDE60022F6
:103968004FF0010C4FF003090CFA02F636EA040096
:103978002ED15000D3F808A009FA00F5ED430AEA61
:10398800050AC3F808A0D3F808B00EFA00FA4AEA04
:103998000B0AC3F808A0B3F804A02AEA06069E801A
:1039A800B3F804A008FA02F646EA0A06B6B29E8000
:1039B8001E682E401E60D3F800A007FA00F646EAFB
:1039C8000A061E60DE6801FA00F035402843D86018
:1039D8000132102AC8D1BDE8F08F034AD5692C43BB
:1039E800D461AAE6905D030800100240024A956976
:1039F8002C439461A1E600BF0010024010B1036897
:103A080082881A85704700BF10B1036882889A615E
:103A1800704700BF18B1838811B10268936170477D
:103A28001B04FAE710B40A4B0A4A1C7801238340A6
:103A3800234052F8200029B9B3FA83F149095DF807
:103A4800044BE7E7191C18BF01215DF8044BE1E7B7
:103A58007C5500208055002008B501210220FFF781
:103A6800E1FF0C4B1B7803F00503052B0ED000215A
:103A78000120FFF7D7FF00210846FFF7D3FF3220C8
:103A8800FEF7A8FE0220FFF77FF8F8E711F032F8FA
:103A9800EDE700BFB04000200E4B1B8801463BB944
:103AA8000D4B0E4A1B7810680BB981F00101B1E784
:103AB8000B4B5A691AB11A6810B9106058747047DC
:103AC80008480949008891FBF0F1012011605874F9
:103AD800704700BF8C5500208E550020905500205F
:103AE80094550020AC55002020A1070030B1026891
:103AF8008388128A1A4214BF01200020704700BF31
:103B08002DE9F0410C4E356873691D4011D0DFF87E
:103B18002C800127B5FA85F4C4F11F0408EB84034F
:103B280007FA04F4D3F80C0103689847A5437461B5
:103B3800F0D1BDE8F08100BF00040140841D0020E1
:103B48002DE9F0410C4E356873691D4011D0DFF83E
:103B58002C800127B5FA85F4C4F11F0408EB84030F
:103B680007FA04F4D3F80C0103689847A543746175
:103B7800F0D1BDE8F08100BF00040140841D0020A1
:103B88002DE9F0410C4E356873691D4011D0DFF8FE
:103B98002C800127B5FA85F4C4F11F0408EB8403CF
:103BA80007FA04F4D3F80C0103689847A543746135
:103BB800F0D1BDE8F08100BF00040140841D002061
:103BC8002DE9F0410C4E356873691D4011D0DFF8BE
:103BD8002C800127B5FA85F4C4F11F0408EB84038F
:103BE80007FA04F4D3F80C0103689847A5437461F5
:103BF800F0D1BDE8F08100BF00040140841D002021
:103C08002DE9F0410C4E356873691D4011D0DFF87D
:103C18002C800127B5FA85F4C4F11F0408EB84034E
:103C280007FA04F4D3F80C0103689847A5437461B4
:103C3800F0D1BDE8F08100BF00040140841D0020E0
:103C48002DE9F0410C4E356873691D4011D0DFF83D
:103C58002C800127B5FA85F4C4F11F0408EB84030E
:103C680007FA04F4D3F80C0103689847A543746174
:103C7800F0D1BDE8F08100BF00040140841D0020A0
:103C88002DE9F0410C4E356873691D4011D0DFF8FD
:103C98002C800127B5FA85F4C4F11F0408EB8403CE
:103CA80007FA04F4D3F80C0103689847A543746134
:103CB800F0D1BDE8F08100BF00040140841D002060
:103CC800094A10B59369094C43F00103936104F55F
:103CD8008670402200212FF0BFFB4FF0FF33C4F85D
:103CE8004C31C4F84F3110BD00100240841D002033
:103CF80010B58B680160044698470022FF23012114
:103D0800A2736373217310BD03681B6A184700BF51
:103D180070B44E1C0568C2728672AC69A44670BC49
:103D2800604700BF2DE9F041044618460D46164687
:103D38001F462EF0D7FC2844A0722068E672294658
:103D480045693B4632462046AC46BDE8F0416047EF
:103D5800036810B504461B689847236820469B688B
:103D68009847A37B0133A37310BD00BF10B5036848
:103D780004469B689847FF2301226373227310BD92
:103D880070B5054600780E46FFF76AFA044618B182
:103D9800382301368371C67120466978FFF7B4FC71
:103DA800AB78204613B1BDE870402DE6BDE8704001
:103DB80024E60D4B2DE9F0411E680C4D0746002402
:103DC800A64201DCBDE8F08104EB440303EB0508DF
:103DD800E85CFFF745FA874204D121464046BDE832
:103DE800F041CDE70134EBE7C0550020C455002071
:103DF8000B4B984211D0A3F57843984202D04FF06C
:103E0800FF3070470122074B03EB02135A89013236
:103E180092B25A81588980B270470022F3E700BFF6
:103E280000300140E061002008B540F2E93300E0CD
:103E38009BB10289013B12F0020F9BB2F8D00173CB
:103E480040F2E93300E043B10289013B12F0010F6F
:103E58009BB2F8D0007BC0B208BDFFF7C9FFC0B263
:103E680008BD00BF38B583680446154613B11A6803
:103E78009B881385606840F2E93300E07BB30289D0
:103E8800013B12F0020F9BB2F8D0017340F2E93304
:103E980000E023B30289013B12F0010F9BB2F8D076
:103EA800037B606840F2E93300E0DBB10189013B44
:103EB80011F0020F9BB2F8D0057340F2E93300E02D
:103EC80083B10289013B12F0010F9BB2F8D0037B4A
:103ED800A36813B11A689B889361012038BDFFF766
:103EE80087FFDEE7FFF784FFF2E700BF2DE9F04F19
:103EF80087B00346029040689A68038823F040031D
:103F08001B041B0C038003889BB223F0380343F087
:103F180038030380038843F04003038012B1136819
:103F280092881A8540F2E93302E0002B00F07F8185
:103F38000289013B12F0020F9BB2F6D06B23037388
:103F480040F2E93302E0002B00F071810289013B65
:103F580012F0010F9BB2F6D0037B029B586840F227
:103F6800E93302E0002B00F05F810289013B12F087
:103F7800020F9BB2F6D08023037340F2E93302E0CC
:103F8800002B00F051810289013B12F0010F9BB216
:103F9800F6D0037B029B9B6813B11A689B889361D8
:103FA8000623A44CDFF89882DFF898A2A24DA34E0E
:103FB80004939623DFF890C201934FF0100EDAF8BD
:103FC8000430C3F30803002B40F0B380EFF31183F0
:103FD800002B40F0AE802068AA6823689842FAD186
:103FE80033689A42F7D8D8F800704FF47A7101FB19
:103FF80007F39B1AB3FBF7F301FB00304FF47A7712
:104008004FF00109DAF80430C3F30803002B71D12B
:10401800EFF31183002B6DD12368A96822689342BE
:10402800FAD132689142F7D8D8F8002007FB02FB92
:10403800ABEB0101B1FBF2F107FB03131B1AB3F55C
:104048007A7FDFD3019B013B0193B8D1029B9B6828
:1040580013B11A689B881385029B586840F2E933AC
:1040680002E0002B00F087800289013B12F0020F6A
:104078009BB2F6D0F523037340F2E93301E0002B3D
:1040880079D00289013B12F0010F9BB2F7D0037B74
:10409800029B5868838940F2E93301E0002B67D01E
:1040A8000289013B12F0020F9BB2F7D0FF23037382
:1040B80040F2E93301E0002B5AD00289013B12F0AB
:1040C800010F9BB2F7D0037BDBB20393029B9A6884
:1040D80012B1136891889961039B682B4ED0049B99
:1040E800013B13F0FF0304937FF463AF184607B056
:1040F800BDE8F08FEFF311818EF31288D5F808B080
:104108002B68DB0344BFCCF80090D5F808B02368CF
:10411800DCF80020C9B281F31188D8F800101344E4
:1041280007FB01F2A2EB0B02B2FBF1F207FB032340
:1041380084E7EFF311838EF31288AF682A68D203FD
:1041480003D50122CCF80020AF682068DCF8009085
:10415800DBB283F31188D8F800104FF47A72484420
:1041680002FB01F3DB1BB3FBF1F302FB003045E775
:10417800FFF73EFEAAE7FFF73BFE89E712B1136897
:1041880092881A85029B586840F2E93301E0002BB7
:1041980047D00289013B12F0020F9BB2F7D08C2363
:1041A800037340F2E93301E0002B3AD00289013B66
:1041B80012F0010F9BB2F7D0037B029B58688389EA
:1041C80040F2E9330289013B12F0020F9BB215D18C
:1041D800002BF7D1FFF70CFE029B9B6813B11A68FE
:1041E8009B889361059B142B04D3182B17D9543B38
:1041F800062B14D9002007B0BDE8F08FFF23037306
:1042080040F2E93301E0002BE4D00289013B12F0CF
:10421800010F9BB2F7D0037BDBB20593DCE70320E9
:1042280065E7FFF7E5FDC8E7FFF7E2FDB2E6FFF750
:10423800DFFD92E6B455002010E000E0BC550020F8
:10424800B855002000ED00E0B0550020F0B58369B6
:1042580083B0064613B11A689B8813857069DFF826
:10426800A0C08389C3244FF47A7306276D464FF69E
:10427800FF710CF1010C03E0013B9BB28B421CD097
:1042880002899207F8D504734FF47A7302E0A3B257
:104298008B4212D00289D20703F1FF34F7D5027B93
:1042A800D2B20DB12A7001354FB1013FFF24BCF1E4
:1042B800000FE5D09CF80040DBE7FFF799FDB369F4
:1042C80013B11A689B8893619DF805009DF8015009
:1042D8009DF802109DF803409DF804209DF80630D3
:1042E80041EA052143EA002342EA04220120A6F814
:1042F8005010A6F85220A6F8543003B0F0BD00BF05
:104308006C350308F8B51646826805461F4641F025
:10431800800112B1136892881A85686840F2E934FE
:1043280001E0002C44D00389013C13F0020FA4B231
:10433800F7D0017340F2E93101E0002938D0038950
:10434800013913F0010F89B2F7D0037B68684FF089
:10435800000C83894FF47A714FF6FF724FF0FF0E0D
:1043680003E0013989B291421FD003899C07F8D52F
:1043780080F80CE04FF47A7102E0A1B2914214D0B7
:104388000389DB0701F1FF34F7D5037BDBB20EB1FC
:10439800337001360CF1010CBC45E6D1AB6813B1A2
:1043A8001A689B8893610120F8BDFFF721FDF5E7A6
:1043B800FFF71EFDCAE700BFF8B584894FF6FF7600
:1043C8004FF47A742BB311B30F78013101E0B44282
:1043D80017D00589013CAD07A4B2F8D507734FF48F
:1043E8007A7402E0BCB2B4420BD00589ED0704F13F
:1043F800FF37F7D5057BEDB20AB115700132013BE5
:10440800E0E7FFF7F5FC003018BF0120F8BDFF27F3
:10441800DFE70120F8BD00BF427A4AB110B5044673
:1044280004F10A01D0E9003098470023637210BDF7
:10443800704700BF437A5A1C0344D2B24272997241
:10444800037A93420AD84AB110B5044604F10A0126
:10445800D0E9003098470023637210BD704700BF51
:10446800A8B10D4B012210B402FA01F103F1750451
:1044780002E00333A3420BD013F8012C8242F8D197
:104488001A780A42F5D001205DF8044B704770474E
:1044980000205DF8044B70477535030830B40A4DA9
:1044A800002305F16C0401E0272B0AD003EB43023B
:1044B8000133A15C8142F7D12A4430BC92F86E00E6
:1044C8007047002030BC704708350308024A13685B
:1044D80023EA000010607047B0690020484B1B6851
:1044E800B3F5FA7F10B57DD8464B9A89D9899142A0
:1044F80024BF00229A81598A1A8A9142D97824BF06
:1045080000221A82012957D09A7922B19878042872
:10451800B8BF042098703C4890F858000A2869D021
:104528000C285AD1DFED397A9FED397A002A18BF65
:10453800F0EE477A374CA278062A97BF3649DFED66
:10454800346A01EB8201D1ED396A217971B1013AFE
:10455800032A0AD8B7EE000A80EE260A2EF008FFD2
:104568002388984228BF1846208010BD9B782B4985
:1045780007EE103A0A78B8EEC77A67EE277A07EEA0
:10458800102AB8EEC77A27EE277AF4EEC76AF1EE5A
:1045980010FAEADD86EEA77AFDEEC77A17EE903AB2
:1045A800102BA8BF1023012BB8BF0123DBB29A42FE
:1045B80038BF1A460A7010BD134A184C92F85800B2
:1045C800997000220A2821709A7110D00C2801D005
:1045D8000A2812D0DFED127AA6E70129F8D0DFED1C
:1045E800117AA1E74FF00050FFF770FF7CE7DFED8D
:1045F8000E7A9FE7DFED0D7A96E7DFED0B7A93E70A
:1046080014630020EC620020246300200AD7A33939
:104618006F120338486C0020083503082C2400204A
:104628006F12833A6F1203390F506E3A5304E93808
:10463800F8B5AF490B78A3F11702022A0FD9AD4A92
:1046480012F83300002840F01981D800024452784B
:104658002AB1A94A12F83330002B00F0E88100246F
:10466800A64EA74F2546315B4B0803F077334FEA38
:10467800910C0CF0333CCB1ACA08A3EB0C0302F0E4
:1046880011329B1A03EB231303F00F33A7FB03C26A
:10469800D209C2EB02229A1A11F001031CBF01359C
:1046A800EDB2012A06EB040004F108040BDD022A2E
:1046B80040F0E08013B111F42F7F04D12DF032FACD
:1046C800002800F0D780302CCDD1013D022D00F21A
:1046D800D1808020FFF7FAFE8A494B78052B5CD8F9
:1046E80003EB4300884A03EB800302EB43020B7899
:1046F8008648022B02604BD8C3EBC302844CC3EB41
:10470800C20204EB42026E2101FB0343814D9988EA
:10471800D8882A608842804924BF00229A808B78F2
:10472800042B00F0B48033B90B88B3F5F07F84BF55
:104738004FF4F0730B80794DFFF7D0FE2B68784A61
:104748001A40002A00F0CB80DA0700F1CB805F0422
:1047580000F1B2801E0700F1B680980400F1BA801B
:104768001904704A7ED50023D37382F82330137E50
:10477800BBB1537E032B00F03881012B20D0022BD4
:1047880025D000232383A4F88630A4F8F4303CE134
:104798005F4C002322460B70B5E700235A4A4B7042
:1047A800A5E7A3816382A4F87A30A4F88030A4F83E
:1047B800E830A4F8EE302383A4F88630A4F8F43067
:1047C800002384F84F3084F8BD3084F82B31564BE1
:1047D800DA79022A08BF01224FF0070008BFDA7110
:1047E80011F03AFD002840F0AD804FF480601BF0D6
:1047F8007BFC002800F01E814FF40070FFF766FE76
:104808004FF40050FFF762FE4FF48040FFF75EFE62
:104818004FF40030FFF75AFE4FF40010FFF756FE32
:10482800424C4FF00070FFF751FE4FF08060FFF7E9
:104838004DFEA388002B38D13D4A1368DB0DDB05FC
:104848000BB100231360936823F4007323F0020371
:104858000BB1002393601379013B042B01D9012389
:104868001371F8BDD17B002900F0D880002382F8AD
:1048780023307CE7214819F0C6FF2AE7D80014182E
:104888006468002C7FF4E2AE17240C70DEE64FF467
:104898008050FFF71BFE8B8AB3F57A7F37BF4FF442
:1048A8007A728B788B788A823DE72078FDF780FDD5
:1048B8000028C1D1A080BFE71E48FFF707FE2B687C
:1048C8001E077FF54AAF1C48FFF700FE2B689804C7
:1048D8007FF546AF1948FFF7F9FD2B6840E743F02D
:1048E80001032B601648FFF7F1FD2B682FE700BF87
:1048F800C829002034600308CC52030884780020BB
:1049080081808080787E0020D84B0020EC780020C1
:10491800544A0020444A0020486C0020B069002016
:1049280009600002B86F00200C2F0020CC40002046
:10493800242B002009200002016000020940000227
:10494800086000023E4F002207F1060E1146944609
:1049580001EB4100430017F81000072807EB030597
:1049680040D05B1B28464E1CEABB7344142E1D44E2
:104978003FF43BAF10F8062F072A08D00136142E53
:104988001D443FF432AF10F8062F072AF6D1012252
:104998009319132B15D803EB430007EB400117F8C5
:1049A8001000072808BF013305D012E011F8064FA0
:1049B800072C0ED10346132B02F1010203F101006B
:1049C800F4D9C5F800C0A5F804C0711C1429BFD1DA
:1049D8000BE703EB430307EB4303196829609B8844
:1049E800AB80F2E7BAB10E46D2E70023A381638217
:1049F800A4F87A30A4F88030A4F8E830A4F8EE30AF
:104A08002383A4F88630A4F8F430537E023B022BAB
:104A18003FF6D6AEDBE60E460122B9E742F20101C7
:104A28000B423FF4A4AE002382F823309FE61823FC
:104A38000B7014E64FF00060FFF748FDDCE600BF9E
:104A48003C2700202DE9F84F0CF038FA2B4B2C4A64
:104A5800934250D22B4F03F114069B464FF00108A6
:104A6800294C258862197DB1BA420DD2052D0BD982
:104A780036F8143C6188C3F30B0399420AD01446F4
:104A880025886219002DEFD156F8101C5846FCF7FE
:104A980005F90FE0637913F0030AF0D156F8101CFA
:104AA80094F804905846FCF7F9F836F8141CB9EB5A
:104AB800113F11D04FF00008114B0BF1140B9B451F
:104AC80006F11406CCD3FFF7B3FDFCF7B5FD0CF0E7
:104AD8008BF94046BDE8F88F36F8123C56F8100CB2
:104AE800AA1FC3F30B039A4204F10601A8BF1A4692
:104AF8002EF0C0FBE0E74FF00108E4E748A4030804
:104B0800F8A803080000040802F0030870B50222A0
:104B18001349144C144E4FF6FF70FBF7B9FD228869
:104B28004AB1A518B54218D2052A16D92146FBF76D
:104B3800AFFD2C46F3E721460222FBF7A9FD02222E
:104B4800A118FBF7A5FD094BE41A094B1C8041F697
:104B58000F53C31A5842584170BD0020FCE700BFEC
:104B680000F0030802F0030800000408FAEF030845
:104B7800402400202DE9F04F8DB0FFF759FDDFF8F4
:104B880094915B4FDFF890810CF098F9594A5A4B91
:104B9800B2F80021ADF80620A3EB090300934FF00B
:104BA800030A0026CDE90866CDE90A66009BCDF820
:104BB80018900793D8F810301B0606D54F4BC8F845
:104BC800043003F18833C8F8043001238DF82C3001
:104BD8003423C8F80C300222BDF80630ADF808308E
:104BE80002A906A8FCF772FB022202A94FF6FF7081
:104BF800FBF74EFD424BBB42834629D21C466588D3
:104C080023888DF81560C5F30B05C3F30B00A91DA8
:104C18001B0B0622ADF81010ADF8120004A906A867
:104C28008DF81430FCF752FB5846062204A9FBF70E
:104C38002FFD616883462A4606A8FCF747FB616892
:104C480058462A46FBF724FD1434BC428346D6D383
:104C5800022203A906A8ADF80C60FCF737FB022274
:104C680003A95846FBF714FD40BAC343022204A91E
:104C780006A8ADF81030FCF729FB099850BB0A9834
:104C88009DF82C308BB9C0B1BAF1010A8AD1052040
:104C980024F044FE1B491C4B1C481D4A0860DA607E
:104CA8000CF0A2F80DB0BDE8F08FD8F8103043F042
:104CB8008003C8F810300028E6D199F80030AB2BF3
:104CC800E5D199F80130BE2BE1D1FFF71FFF00288D
:104CD800E6D1DCE708ABC0F10402002118442EF04D
:104CE800BBFB089906A8FCF797FACDE90960C7E766
:104CF800F8A80308083503080000040823016745DD
:104D080048A40308FC9F002000ED00E0EFBEADDEE4
:104D18000400FA0500F003080020024008B5FFF778
:104D280029FFFFF78FFE0120BDE808401BF0CCBA31
:104D38002DE9F047D44C2DED028BA3682046984707
:104D4800002800F0D180D14B1B780122042B84F875
:104D5800382000F0CD80B4F91A3006EE903AB4F954
:104D68001C3007EE103AB4F91E3007EE903AF8EE10
:104D7800E66AB8EEC77AF8EEE77AC4ED0B6A84ED16
:104D88000C7AC4ED0D7AC24B1B88002B60D0C14B46
:104D980094ED0B2AD4ED0C2A94ED0D3A93ED008A8C
:104DA800D3ED054A93ED090AD3ED0E3AD3ED120A75
:104DB80093ED174A93ED011A93ED065AD3ED0A1AAB
:104DC80093ED0F6AD3ED137A93ED187AD3ED045A65
:104DD800D3ED0D6AE8EE024AE0EE223AA3EE204A4D
:104DE800A1EE025AA1EEA26AA3EE277A93ED038AF6
:104DF800D3ED167A93ED020AD3ED0C0A93ED0B1A54
:104E0800D3ED151AC4ED0B4A65EEE45AA8EE645AC0
:104E180066EEE36AD3ED144A83ED055A67EEC47A69
:104E2800E0EE025AA0EEE36AE1EE226AA4EE617AAD
:104E3800E3EE247AC3ED065AC4ED0C3A83ED0E6A0C
:104E4800C3ED0F6A83ED177AC3ED187A84ED0D4A26
:104E5800914E94F822109148914D0BF001FA328846
:104E6800D5F80031002A40F097808E4A1268510721
:104E78005BD4B3F9002094ED0C6A94ED0D7A94EDAF
:104E88000B5A894905EE902AB3F90220B3F9043088
:104E980006EE902A07EE903AF8EEE55A834B0A6838
:104EA800D3ED003A93ED014AD3ED024AF8EEE66AF3
:104EB800F8EEE77A75EE655A76EE666A77EE677A07
:104EC800C4ED0B5A34EE266A73EEA55A34EEA77A6F
:104ED8000132C3ED005AC4ED0C6A83ED016AC4EDDA
:104EE8000D7A83ED027A0A60BDEC028BBDE8F0878B
:104EF800B4F91A00B4F91C10B4F91E206C4B07EE73
:104F0800900AF8EEE76A07EE901AB8EEE77A07EE2D
:104F1800902AF8EEE77AC4ED0B6A188059809A80D7
:104F280084ED0C7AC4ED0D7A2DE7624E3288322A70
:104F380000F0CA80002A40F016815F4E3278002ABD
:104F480097D05E4FD5F87421D5F86C11D5F870015B
:104F580087FB02ECD217C2EB2C12B4F818C0A2EBF4
:104F68000C029A8087FB01C287FB00C7C017C0EB01
:104F78002710C917524F5880C1EB221100223270F6
:104F88001980FA60FFF7F6FDFFF75CFD01201BF0C2
:104F98009BF9D5F800316CE7B2F5C87F18BFD5ED9D
:104FA800557AD4ED0B6A0CBF9FED467AB8EEE77AD6
:104FB800DFED447A0022C4ED0B7A1A8032883788F4
:104FC80037EE267AB2F5C87F18BFD5ED567ABDEE12
:104FD800C77A18BFF8EEE77A17EE101A85ED557AFA
:104FE80094ED0C7A77EE877A0020FDEEE77A4FF0A1
:104FF800000CB7F5C87F206317EE902AA3F802C00B
:10500800C5ED567A00F0A580D5ED577A94ED0D7A66
:105018006063F8EEE77A012F77EE877AA3F804C089
:10502800FDEEE77A17EE900AC5ED577A28D1DFF83A
:105038008CE0B4F81880C8308EFB00A9C831C8329B
:10504800C017C0EBE9108EFB01A98EFB02AED21788
:10505800C2EBEE12C917DFF868E05A80C1EBE9111C
:10506800A0EB080098801980CEF80CC0FFF782FDED
:10507800FFF7E8FC38461BF027F93788D5F80031E8
:10508800013F3780F1E600BFA0820020FC780020B5
:10509800942300209823002076330020CC8200201F
:1050A800841D0020B069002014320020183200202E
:1050B8000879002078330020743300201F85EB51D5
:1050C800247B002000000000514A1968D268C5F806
:1050D80068219FED507AB3F90420C5F86011A5F84E
:1050E8006421DFED4C7AD4ED0B6AC4ED0B7A002213
:1050F8001A80328837EE267A322A18BFD5ED5C7AC4
:105108003288BDEEC77A18BFF8EEE77A85ED5B7A8C
:1051180094ED0C7A77EE877A0020FDEEE77A00218D
:10512800322A2063C5ED5C7A598042D0D5ED5D7A8C
:1051380094ED0D7A6063F8EEE77A012A77EE877AC4
:105148009980FDEEE77AC5ED5D7A11D0013A32809B
:10515800F3E6D4ED0D7A6063FDEEE77AA3F804C0B8
:10516800C5ED577A8CE7D5ED5B7AB8EEE77AB8E704
:1051780029482A4F0068DFF8B8C03A7082038CF8D3
:1051880000103CD426480021024617780B2F02F164
:105198000C0217D001311829F7D1D5F860211A600F
:1051A8001B49B5F96471D5F868019F803288C860D9
:1051B800CCE7D4ED0D7A6063FDEEE77A9980C5ED12
:1051C8005D7AC3E7174FD7F800E04A00BEF1000F39
:1051D80009D002EB010C00EB8C0C9EF801E09CF866
:1051E80001C0F445D9D20A44DFF848C00E4900EBA3
:1051F800820000223860ACF800200A60CDE70B4A34
:105208001278032ABED11BF001F8D5F80031C4E7A3
:10521800247B002000000000242B00207333002092
:105228000C3A0308783200203033002090820020A6
:105238007A3300202C330020014B18609AE400BF19
:10524800B069002030B402681146531C036011F89D
:10525800024B0160D31C517803609378151D0560DB
:105268001B0443EA0123D078234343EA006030BC9F
:10527800704700BF0368591C1A46016012F8021BE8
:105288000260587841EA0020704700BF03685A1C42
:1052980002601878704700BF38B5044600681546A4
:1052A8002DF0E8FF22682A44226038BD036810B454
:1052B8000A0A5C1C04601A7003685A1C02601970A0
:1052C8005DF8044B704700BF03685A1C026010B4B5
:1052D800197003680A0A5C1C04601A7003680A0CD7
:1052E8005C1C04601A700368090E5A1C026019706D
:1052F8005DF8044B704700BF03685A1C02601970C0
:105308000368090A5A1C02601970704707EE901A60
:10531800F8EE677A9FED837A27EE800A20EE070A77
:10532800FDEEC07A17EE903A2033402B00F28180D0
:10533800DFED7D7AB4EEE70AF1EE10FA40F3E6808D
:10534800B0EE407A9FED796ADFED796A01E0B0EE60
:10535800677AB4EEE67AF1EE10FA77EE467AF6DC82
:105368009FED747AF4EEC77AF1EE10FA40F1D1802D
:105378009FED6E6ADFED706A01E0F0EE477AF4EEB9
:10538800E67AF1EE10FA37EE867AF6D4DFED6B7A2C
:10539800B4EEE77AF1EE10FA40F3A780DFED627A17
:1053A80037EEC77A27EE076ADFED655ADFED657AD3
:1053B800DFED656A9FED655AE6EE257A67EE065AD7
:1053C800E6EE276AF7EE007AA5EEA67AF0EE675ABF
:1053D800E7EE055AE7EE457A87EEA55ADFED577AEC
:1053E80030EE277AFDEEC76A16EE903A2033402B4E
:1053F80024D99FED577AF6EE006AB7EE006AF7EE09
:10540800004AC4EEA57A0023836143610362C36145
:1054180080ED045A67EEA66A27EE866A27EE877A39
:10542800C0ED006AC0ED026A80ED016A80ED037A82
:105438007047B7EE005AF0EE455ACFE7B4EEE70AE8
:10544800F1EE10FA6BDD9FED396ADFED396A01E0A4
:10545800B0EE677AB4EEE67AF1EE10FA77EE467AB5
:10546800F6DC9FED347AF4EEC77AF1EE10FA53D5F4
:105478009FED2E6ADFED306A01E0F0EE477AF4EE38
:10548800E67AF1EE10FA37EE867AF6D4DFED2B7A6B
:10549800B4EEE77AF1EE10FA33DCDFED2E7AB4EEF3
:1054A800E77AF1EE10FA44BFDFED227A37EEC77AD9
:1054B80027EE076ADFED224ADFED226ADFED227A66
:1054C800E6EE246A67EE064AE6EE267AB7EE006A4A
:1054D800A4EEA77AF6EE006A36EE476AF8EE007A8E
:1054E80027EE277A66EE266A89E7DFED1A7AB4EEA8
:1054F800E77AF1EE10FA44BFDFED0E7A37EEC77A9D
:1055080050E7DFED097A37EEC77AD1E7F0EE407A57
:1055180026E7B0EE677A39E7B0EE677AB6E7F0EEDD
:10552800477A9EE727D4D236DB0F4940DB0FC940C4
:10553800E4CB1641DB0F49C0E4CB16C1DB0FC93FF2
:1055480092E741B99730083C15A82ABEF304353FC5
:1055580000000000DB0FC9BFDFED2B7AB4EEE70ACD
:10556800F1EE10FA4ADDDFED296A9FED297A01E0B4
:10557800B0EE670AB4EEC70AF1EE10FA70EE667A7A
:10558800F6DC9FED247AF4EEC77AF1EE10FA38D5FE
:10559800DFED1E6A9FED207A01E0F0EE407AF4EE2E
:1055A800C77AF1EE10FA37EEA60AF6D4DFED1B7AC9
:1055B800B4EEE70AF1EE10FA14DDDFED137A37EEF8
:1055C800C00A60EE006A9FED166A9FED167ADFED5D
:1055D800167AA6EE867A20EE266AE6EE877AA6EE98
:1055E800270A7047DFED117AB4EEE70AF1EE10FAF8
:1055F80044BFDFED087A37EEC00AE2E7F0EE407A02
:10560800BFE7B0EE670AD1E7DB0F4940DB0FC940BF
:10561800E4CB1641DB0F49C0E4CB16C1DB0FC93F11
:1056280092E741B99730083C15A82ABEDB0FC9BFDD
:1056380002B370B48E1803E0121B14D1B14215D016
:1056480010F8012BA2F14103192B11F8013BA3F12A
:10565800410598BF2032192D03F12004ECD9D21A44
:1056680001D1002BEAD1104670BC704700221046C9
:1056780070BC70471046704770B5044608460D4622
:105688002DF030F8064602E014F8013F43B13246E7
:1056980029462046FFF7CCFF0028F5D1204670BDEB
:1056A8001C46204670BD00BF4FF0FF32FFF7C0BF59
:1056B800A0F16103192B98BF20387047A0F141036E
:1056C800192B98BF20307047202805D009380428A6
:1056D8008CBF0020012070470120704761381928CD
:1056E8008CBF002001207047413819288CBF00204A
:1056F80001207047303809288CBF002001207047EE
:10570800A0F13003092B07D920F0200041381928CF
:105718008CBF0020012070470120704728F076BD1B
:105728000378202B024600F10100F9D0092BF7D0AD
:105738002D2B00F0A4802B2B03BF5378B7EE000A63
:105748000246B7EE000AA3F13001C8B209289FED5E
:10575800577A10D8F2EE046A07EE901AF8EEE77A54
:1057680012F8013FE7EE267AA3F13001C8B2092802
:10577800B0EE677AF0D92E2B63D003F0DF03452B08
:1057880002D020EE070A704710B451782D294FD067
:105798002B2979D0A1F13003092B02F101027AD823
:1057A8000024002303EB830301EB430312F8011FDA
:1057B800A1F130000928A3F13003F3D9B3F59A7F9A
:1057C8001A4628BF4FF49A72072B6CD9DFED386A56
:1057D8001346F7EE007A083B072B67EEA67AFAD84D
:1057E80002F00702DAB1F2EE046A012A67EEA67A3D
:1057F80015D0022A67EEA67A11D0032A67EEA67A98
:105808000DD0042A67EEA67A09D0052A67EEA67A93
:1058180005D067EEA67A062A18BF67EEA67A002C8E
:105828003BD087EE277A5DF8044B20EE070A7047D5
:105838009178A1F13003092B02F1020230D801243A
:10584800AFE75378A3F13001C8B2092802F1010289
:1058580093D8F2EE046AF0EE665A07EE901AF8EE64
:10586800E77A12F8013F87EEA66AA3F13001C8B2C1
:10587800092866EEA56A37EE067AEED97DE75378F1
:10588800BFEE000A02465EE79178A1F13003092BCA
:1058980002F1020284D9F7EE007A27EE277AC2E7EE
:1058A800F7EE007ABDE7F7EE007A9BE7000000000C
:1058B80020BCBE4CF8B5064615460846B6FBF2F4C1
:1058C80034B905FB14640C4B1B5D00F8013BF8BDB3
:1058D800B4FBF2F75FB905FB1747074B05FB1464E8
:1058E800DA5D00F8012B1B5D00F8013BF8BD384676
:1058F800FFF7E0FFEFE700BF68650308B5EEC00AF1
:10590800DFED677A674AF1EE10FACCBF30EE270A6E
:1059180030EE670ADFED647A20EE270A2DE9F047BA
:10592800FDEEC07A88B017EE904A84EAE476002348
:10593800A6EBE476CDE902330493A2FB06325FEAD4
:10594800D208054641D105AF58483946554BA3FB07
:105958000623DB0803EB8303A6EB4303002CC35C9D
:105968000B704FF00002ACBF20232D234A7038463D
:105978008DF808302CF0B6FE0128394639D00228B7
:1059880042D0032805BF302302A802A88DF80930A9
:105998002DF06AFD02A82CF0A5FE0338C4B22246F9
:1059A80002A928462DF096FD00232B5528462CF0F9
:1059B80099FE2E22431C02A92A542144E8182DF0EE
:1059C8006FFD284608B0BDE8F087394BA3FB0623D6
:1059D8005B0922D105AF35483946324AA2FB083265
:1059E800D20802EB8202A8EB4202835C01F8013B79
:1059F800ACE7302302A88DF809308DF80A308DF80D
:105A08000B302DF031FDC5E7302302A88DF80930A1
:105A18008DF80A302DF028FDBCE7264AA2FB0612B5
:105A28005FEA92190ED105AF204839461D4AA2FBFC
:105A380003C2D20802EB8202A3EB4203C35C01F863
:105A4800013BCAE71C4AA2FB06125FEA523A0ED192
:105A580005AF16483946134AA2FB09C2D20802EB21
:105A68008202A9EB4202825C01F8012BDEE71348AF
:105A7800B6FBF0F058B905AF39460A20BAFBF0F288
:105A880000FB12A20948825C01F8012BE3E705AF8D
:105A980039460A220193FFF70DFF019B0146ECE707
:105AA8006F12033ACDCCCCCC00007A446865030869
:105AB8001F85EB51D34D62105917B7D1A08601004D
:105AC80070B406688E4217D90139751E002311F883
